{
  "_format": "hh-sol-artifact-1",
  "contractName": "CoupleNFT",
  "sourceName": "contracts/CoupleNFT.sol",
  "abi": [
    {
      "inputs": [
        {
          "internalType": "address",
          "name": "_cmpxToken",
          "type": "address"
        }
      ],
      "stateMutability": "nonpayable",
      "type": "constructor"
    },
    {
      "anonymous": false,
      "inputs": [
        {
          "indexed": true,
          "internalType": "address",
          "name": "account",
          "type": "address"
        },
        {
          "indexed": false,
          "internalType": "bool",
          "name": "status",
          "type": "bool"
        }
      ],
      "name": "AddressBlacklisted",
      "type": "event"
    },
    {
      "anonymous": false,
      "inputs": [
        {
          "indexed": true,
          "internalType": "address",
          "name": "owner",
          "type": "address"
        },
        {
          "indexed": true,
          "internalType": "address",
          "name": "approved",
          "type": "address"
        },
        {
          "indexed": true,
          "internalType": "uint256",
          "name": "tokenId",
          "type": "uint256"
        }
      ],
      "name": "Approval",
      "type": "event"
    },
    {
      "anonymous": false,
      "inputs": [
        {
          "indexed": true,
          "internalType": "address",
          "name": "owner",
          "type": "address"
        },
        {
          "indexed": true,
          "internalType": "address",
          "name": "operator",
          "type": "address"
        },
        {
          "indexed": false,
          "internalType": "bool",
          "name": "approved",
          "type": "bool"
        }
      ],
      "name": "ApprovalForAll",
      "type": "event"
    },
    {
      "anonymous": false,
      "inputs": [
        {
          "indexed": false,
          "internalType": "uint256",
          "name": "_fromTokenId",
          "type": "uint256"
        },
        {
          "indexed": false,
          "internalType": "uint256",
          "name": "_toTokenId",
          "type": "uint256"
        }
      ],
      "name": "BatchMetadataUpdate",
      "type": "event"
    },
    {
      "anonymous": false,
      "inputs": [
        {
          "indexed": true,
          "internalType": "uint256",
          "name": "tokenId",
          "type": "uint256"
        },
        {
          "indexed": true,
          "internalType": "address",
          "name": "partner",
          "type": "address"
        },
        {
          "indexed": false,
          "internalType": "uint256",
          "name": "timestamp",
          "type": "uint256"
        }
      ],
      "name": "ConsentGiven",
      "type": "event"
    },
    {
      "anonymous": false,
      "inputs": [
        {
          "indexed": true,
          "internalType": "uint256",
          "name": "tokenId1",
          "type": "uint256"
        },
        {
          "indexed": true,
          "internalType": "uint256",
          "name": "tokenId2",
          "type": "uint256"
        },
        {
          "indexed": true,
          "internalType": "address",
          "name": "partner1",
          "type": "address"
        },
        {
          "indexed": false,
          "internalType": "address",
          "name": "partner2",
          "type": "address"
        },
        {
          "indexed": false,
          "internalType": "string",
          "name": "tokenURI",
          "type": "string"
        }
      ],
      "name": "CoupleNFTMinted",
      "type": "event"
    },
    {
      "anonymous": false,
      "inputs": [
        {
          "indexed": true,
          "internalType": "uint256",
          "name": "tokenId",
          "type": "uint256"
        },
        {
          "indexed": true,
          "internalType": "address",
          "name": "partner1",
          "type": "address"
        },
        {
          "indexed": true,
          "internalType": "address",
          "name": "partner2",
          "type": "address"
        },
        {
          "indexed": false,
          "internalType": "address",
          "name": "initiator",
          "type": "address"
        },
        {
          "indexed": false,
          "internalType": "uint256",
          "name": "timestamp",
          "type": "uint256"
        }
      ],
      "name": "CoupleRequestCreated",
      "type": "event"
    },
    {
      "anonymous": false,
      "inputs": [
        {
          "indexed": false,
          "internalType": "uint256",
          "name": "_tokenId",
          "type": "uint256"
        }
      ],
      "name": "MetadataUpdate",
      "type": "event"
    },
    {
      "anonymous": false,
      "inputs": [
        {
          "indexed": true,
          "internalType": "address",
          "name": "previousOwner",
          "type": "address"
        },
        {
          "indexed": true,
          "internalType": "address",
          "name": "newOwner",
          "type": "address"
        }
      ],
      "name": "OwnershipTransferred",
      "type": "event"
    },
    {
      "anonymous": false,
      "inputs": [
        {
          "indexed": false,
          "internalType": "address",
          "name": "account",
          "type": "address"
        }
      ],
      "name": "Paused",
      "type": "event"
    },
    {
      "anonymous": false,
      "inputs": [
        {
          "indexed": true,
          "internalType": "uint256",
          "name": "tokenId",
          "type": "uint256"
        },
        {
          "indexed": true,
          "internalType": "address",
          "name": "canceller",
          "type": "address"
        },
        {
          "indexed": false,
          "internalType": "string",
          "name": "reason",
          "type": "string"
        }
      ],
      "name": "RequestCancelled",
      "type": "event"
    },
    {
      "anonymous": false,
      "inputs": [
        {
          "indexed": true,
          "internalType": "address",
          "name": "from",
          "type": "address"
        },
        {
          "indexed": true,
          "internalType": "address",
          "name": "to",
          "type": "address"
        },
        {
          "indexed": true,
          "internalType": "uint256",
          "name": "tokenId",
          "type": "uint256"
        }
      ],
      "name": "Transfer",
      "type": "event"
    },
    {
      "anonymous": false,
      "inputs": [
        {
          "indexed": false,
          "internalType": "address",
          "name": "account",
          "type": "address"
        }
      ],
      "name": "Unpaused",
      "type": "event"
    },
    {
      "inputs": [],
      "name": "CONSENT_TIMEOUT",
      "outputs": [
        {
          "internalType": "uint256",
          "name": "",
          "type": "uint256"
        }
      ],
      "stateMutability": "view",
      "type": "function"
    },
    {
      "inputs": [
        {
          "internalType": "address",
          "name": "to",
          "type": "address"
        },
        {
          "internalType": "uint256",
          "name": "tokenId",
          "type": "uint256"
        }
      ],
      "name": "approve",
      "outputs": [],
      "stateMutability": "nonpayable",
      "type": "function"
    },
    {
      "inputs": [
        {
          "internalType": "uint256",
          "name": "tokenId",
          "type": "uint256"
        }
      ],
      "name": "approveCoupleMint",
      "outputs": [],
      "stateMutability": "nonpayable",
      "type": "function"
    },
    {
      "inputs": [
        {
          "internalType": "address",
          "name": "owner",
          "type": "address"
        }
      ],
      "name": "balanceOf",
      "outputs": [
        {
          "internalType": "uint256",
          "name": "",
          "type": "uint256"
        }
      ],
      "stateMutability": "view",
      "type": "function"
    },
    {
      "inputs": [
        {
          "internalType": "address",
          "name": "",
          "type": "address"
        }
      ],
      "name": "blacklisted",
      "outputs": [
        {
          "internalType": "bool",
          "name": "",
          "type": "bool"
        }
      ],
      "stateMutability": "view",
      "type": "function"
    },
    {
      "inputs": [
        {
          "internalType": "uint256",
          "name": "tokenId",
          "type": "uint256"
        },
        {
          "internalType": "string",
          "name": "reason",
          "type": "string"
        }
      ],
      "name": "cancelRequest",
      "outputs": [],
      "stateMutability": "nonpayable",
      "type": "function"
    },
    {
      "inputs": [
        {
          "internalType": "uint256[]",
          "name": "tokenIds",
          "type": "uint256[]"
        }
      ],
      "name": "cleanupExpiredRequests",
      "outputs": [],
      "stateMutability": "nonpayable",
      "type": "function"
    },
    {
      "inputs": [],
      "name": "cmpxToken",
      "outputs": [
        {
          "internalType": "address",
          "name": "",
          "type": "address"
        }
      ],
      "stateMutability": "view",
      "type": "function"
    },
    {
      "inputs": [
        {
          "internalType": "uint256",
          "name": "",
          "type": "uint256"
        }
      ],
      "name": "coupleConsents",
      "outputs": [
        {
          "internalType": "address",
          "name": "partner1",
          "type": "address"
        },
        {
          "internalType": "address",
          "name": "partner2",
          "type": "address"
        },
        {
          "internalType": "uint256",
          "name": "consentTimestamp1",
          "type": "uint256"
        },
        {
          "internalType": "uint256",
          "name": "consentTimestamp2",
          "type": "uint256"
        },
        {
          "internalType": "uint256",
          "name": "requestTimestamp",
          "type": "uint256"
        },
        {
          "internalType": "string",
          "name": "tokenURI",
          "type": "string"
        },
        {
          "internalType": "bool",
          "name": "isActive",
          "type": "bool"
        },
        {
          "internalType": "bool",
          "name": "isMinted",
          "type": "bool"
        },
        {
          "internalType": "address",
          "name": "initiator",
          "type": "address"
        }
      ],
      "stateMutability": "view",
      "type": "function"
    },
    {
      "inputs": [
        {
          "internalType": "bytes32",
          "name": "",
          "type": "bytes32"
        }
      ],
      "name": "coupleExists",
      "outputs": [
        {
          "internalType": "bool",
          "name": "",
          "type": "bool"
        }
      ],
      "stateMutability": "view",
      "type": "function"
    },
    {
      "inputs": [
        {
          "internalType": "address",
          "name": "partner1",
          "type": "address"
        },
        {
          "internalType": "address",
          "name": "partner2",
          "type": "address"
        }
      ],
      "name": "coupleHasNFT",
      "outputs": [
        {
          "internalType": "bool",
          "name": "",
          "type": "bool"
        }
      ],
      "stateMutability": "view",
      "type": "function"
    },
    {
      "inputs": [
        {
          "internalType": "uint256",
          "name": "tokenId",
          "type": "uint256"
        }
      ],
      "name": "getApproved",
      "outputs": [
        {
          "internalType": "address",
          "name": "",
          "type": "address"
        }
      ],
      "stateMutability": "view",
      "type": "function"
    },
    {
      "inputs": [
        {
          "internalType": "address",
          "name": "user",
          "type": "address"
        }
      ],
      "name": "getPendingRequests",
      "outputs": [
        {
          "internalType": "uint256[]",
          "name": "",
          "type": "uint256[]"
        }
      ],
      "stateMutability": "view",
      "type": "function"
    },
    {
      "inputs": [
        {
          "internalType": "address",
          "name": "owner",
          "type": "address"
        },
        {
          "internalType": "address",
          "name": "operator",
          "type": "address"
        }
      ],
      "name": "isApprovedForAll",
      "outputs": [
        {
          "internalType": "bool",
          "name": "",
          "type": "bool"
        }
      ],
      "stateMutability": "view",
      "type": "function"
    },
    {
      "inputs": [],
      "name": "mintCost",
      "outputs": [
        {
          "internalType": "uint256",
          "name": "",
          "type": "uint256"
        }
      ],
      "stateMutability": "view",
      "type": "function"
    },
    {
      "inputs": [],
      "name": "name",
      "outputs": [
        {
          "internalType": "string",
          "name": "",
          "type": "string"
        }
      ],
      "stateMutability": "view",
      "type": "function"
    },
    {
      "inputs": [],
      "name": "owner",
      "outputs": [
        {
          "internalType": "address",
          "name": "",
          "type": "address"
        }
      ],
      "stateMutability": "view",
      "type": "function"
    },
    {
      "inputs": [
        {
          "internalType": "uint256",
          "name": "tokenId",
          "type": "uint256"
        }
      ],
      "name": "ownerOf",
      "outputs": [
        {
          "internalType": "address",
          "name": "",
          "type": "address"
        }
      ],
      "stateMutability": "view",
      "type": "function"
    },
    {
      "inputs": [],
      "name": "pause",
      "outputs": [],
      "stateMutability": "nonpayable",
      "type": "function"
    },
    {
      "inputs": [],
      "name": "paused",
      "outputs": [
        {
          "internalType": "bool",
          "name": "",
          "type": "bool"
        }
      ],
      "stateMutability": "view",
      "type": "function"
    },
    {
      "inputs": [
        {
          "internalType": "address",
          "name": "",
          "type": "address"
        },
        {
          "internalType": "uint256",
          "name": "",
          "type": "uint256"
        }
      ],
      "name": "pendingRequests",
      "outputs": [
        {
          "internalType": "uint256",
          "name": "",
          "type": "uint256"
        }
      ],
      "stateMutability": "view",
      "type": "function"
    },
    {
      "inputs": [],
      "name": "renounceOwnership",
      "outputs": [],
      "stateMutability": "nonpayable",
      "type": "function"
    },
    {
      "inputs": [
        {
          "internalType": "address",
          "name": "partner1",
          "type": "address"
        },
        {
          "internalType": "address",
          "name": "partner2",
          "type": "address"
        },
        {
          "internalType": "string",
          "name": "_tokenURI",
          "type": "string"
        }
      ],
      "name": "requestCoupleMint",
      "outputs": [
        {
          "internalType": "uint256",
          "name": "",
          "type": "uint256"
        }
      ],
      "stateMutability": "nonpayable",
      "type": "function"
    },
    {
      "inputs": [
        {
          "internalType": "address",
          "name": "from",
          "type": "address"
        },
        {
          "internalType": "address",
          "name": "to",
          "type": "address"
        },
        {
          "internalType": "uint256",
          "name": "tokenId",
          "type": "uint256"
        }
      ],
      "name": "safeTransferFrom",
      "outputs": [],
      "stateMutability": "nonpayable",
      "type": "function"
    },
    {
      "inputs": [
        {
          "internalType": "address",
          "name": "from",
          "type": "address"
        },
        {
          "internalType": "address",
          "name": "to",
          "type": "address"
        },
        {
          "internalType": "uint256",
          "name": "tokenId",
          "type": "uint256"
        },
        {
          "internalType": "bytes",
          "name": "data",
          "type": "bytes"
        }
      ],
      "name": "safeTransferFrom",
      "outputs": [],
      "stateMutability": "nonpayable",
      "type": "function"
    },
    {
      "inputs": [
        {
          "internalType": "address",
          "name": "operator",
          "type": "address"
        },
        {
          "internalType": "bool",
          "name": "approved",
          "type": "bool"
        }
      ],
      "name": "setApprovalForAll",
      "outputs": [],
      "stateMutability": "nonpayable",
      "type": "function"
    },
    {
      "inputs": [
        {
          "internalType": "address",
          "name": "account",
          "type": "address"
        },
        {
          "internalType": "bool",
          "name": "status",
          "type": "bool"
        }
      ],
      "name": "setBlacklist",
      "outputs": [],
      "stateMutability": "nonpayable",
      "type": "function"
    },
    {
      "inputs": [
        {
          "internalType": "uint256",
          "name": "newCost",
          "type": "uint256"
        }
      ],
      "name": "setMintCost",
      "outputs": [],
      "stateMutability": "nonpayable",
      "type": "function"
    },
    {
      "inputs": [
        {
          "internalType": "bytes4",
          "name": "interfaceId",
          "type": "bytes4"
        }
      ],
      "name": "supportsInterface",
      "outputs": [
        {
          "internalType": "bool",
          "name": "",
          "type": "bool"
        }
      ],
      "stateMutability": "view",
      "type": "function"
    },
    {
      "inputs": [],
      "name": "symbol",
      "outputs": [
        {
          "internalType": "string",
          "name": "",
          "type": "string"
        }
      ],
      "stateMutability": "view",
      "type": "function"
    },
    {
      "inputs": [
        {
          "internalType": "uint256",
          "name": "tokenId",
          "type": "uint256"
        }
      ],
      "name": "tokenURI",
      "outputs": [
        {
          "internalType": "string",
          "name": "",
          "type": "string"
        }
      ],
      "stateMutability": "view",
      "type": "function"
    },
    {
      "inputs": [
        {
          "internalType": "address",
          "name": "from",
          "type": "address"
        },
        {
          "internalType": "address",
          "name": "to",
          "type": "address"
        },
        {
          "internalType": "uint256",
          "name": "tokenId",
          "type": "uint256"
        }
      ],
      "name": "transferFrom",
      "outputs": [],
      "stateMutability": "nonpayable",
      "type": "function"
    },
    {
      "inputs": [
        {
          "internalType": "address",
          "name": "newOwner",
          "type": "address"
        }
      ],
      "name": "transferOwnership",
      "outputs": [],
      "stateMutability": "nonpayable",
      "type": "function"
    },
    {
      "inputs": [],
      "name": "unpause",
      "outputs": [],
      "stateMutability": "nonpayable",
      "type": "function"
    }
  ],
  "bytecode": "0x6080604052680ad78ebc5ac6200000600b5534801561001d57600080fd5b506040516166e33803806166e3833981810160405281019061003f91906102f3565b6040518060400160405280601b81526020017f436f6d706c69636573436f6e6563746120436f75706c65204e465400000000008152506040518060400160405280600581526020017f43434e465400000000000000000000000000000000000000000000000000000081525081600090816100ba9190610570565b5080600190816100ca9190610570565b5050506100e96100de6101c260201b60201c565b6101ca60201b60201c565b60016008819055506000600960006101000a81548160ff021916908315150217905550600073ffffffffffffffffffffffffffffffffffffffff168173ffffffffffffffffffffffffffffffffffffffff160361017b576040517f08c379a0000000000000000000000000000000000000000000000000000000008152600401610172906106c5565b60405180910390fd5b80600c60006101000a81548173ffffffffffffffffffffffffffffffffffffffff021916908373ffffffffffffffffffffffffffffffffffffffff160217905550506106e5565b600033905090565b6000600760009054906101000a900473ffffffffffffffffffffffffffffffffffffffff16905081600760006101000a81548173ffffffffffffffffffffffffffffffffffffffff021916908373ffffffffffffffffffffffffffffffffffffffff1602179055508173ffffffffffffffffffffffffffffffffffffffff168173ffffffffffffffffffffffffffffffffffffffff167f8be0079c531659141344cd1fd0a4f28419497f9722a3daafe3b4186f6b6457e060405160405180910390a35050565b600080fd5b600073ffffffffffffffffffffffffffffffffffffffff82169050919050565b60006102c082610295565b9050919050565b6102d0816102b5565b81146102db57600080fd5b50565b6000815190506102ed816102c7565b92915050565b60006020828403121561030957610308610290565b5b6000610317848285016102de565b91505092915050565b600081519050919050565b7f4e487b7100000000000000000000000000000000000000000000000000000000600052604160045260246000fd5b7f4e487b7100000000000000000000000000000000000000000000000000000000600052602260045260246000fd5b600060028204905060018216806103a157607f821691505b6020821081036103b4576103b361035a565b5b50919050565b60008190508160005260206000209050919050565b60006020601f8301049050919050565b600082821b905092915050565b60006008830261041c7fffffffffffffffffffffffffffffffffffffffffffffffffffffffffffffffff826103df565b61042686836103df565b95508019841693508086168417925050509392505050565b6000819050919050565b6000819050919050565b600061046d6104686104638461043e565b610448565b61043e565b9050919050565b6000819050919050565b61048783610452565b61049b61049382610474565b8484546103ec565b825550505050565b600090565b6104b06104a3565b6104bb81848461047e565b505050565b5b818110156104df576104d46000826104a8565b6001810190506104c1565b5050565b601f821115610524576104f5816103ba565b6104fe846103cf565b8101602085101561050d578190505b610521610519856103cf565b8301826104c0565b50505b505050565b600082821c905092915050565b600061054760001984600802610529565b1980831691505092915050565b60006105608383610536565b9150826002028217905092915050565b61057982610320565b67ffffffffffffffff8111156105925761059161032b565b5b61059c8254610389565b6105a78282856104e3565b600060209050601f8311600181146105da57600084156105c8578287015190505b6105d28582610554565b86555061063a565b601f1984166105e8866103ba565b60005b82811015610610578489015182556001820191506020850194506020810190506105eb565b8683101561062d5784890151610629601f891682610536565b8355505b6001600288020188555050505b505050505050565b600082825260208201905092915050565b7f436f75706c654e46543a20434d505820746f6b656e2063616e6e6f742062652060008201527f7a65726f20616464726573730000000000000000000000000000000000000000602082015250565b60006106af602c83610642565b91506106ba82610653565b604082019050919050565b600060208201905081810360008301526106de816106a2565b9050919050565b615fef806106f46000396000f3fe608060405234801561001057600080fd5b50600436106102065760003560e01c806378745c4a1161011a578063bd2a6d79116100ad578063dbac26e91161007c578063dbac26e9146105df578063e985e9c51461060f578063eb9db01f1461063f578063f05bfa7b1461065b578063f2fde38b1461068b57610206565b8063bd2a6d7914610531578063bdb4b84814610561578063c87b56dd1461057f578063d191ab26146105af57610206565b806395d89b41116100e957806395d89b41146104bf5780639abac845146104dd578063a22cb465146104f9578063b88d4fde1461051557610206565b806378745c4a1461045d5780638456cb591461047b5780638545f4ea146104855780638da5cb5b146104a157610206565b806320c7fdfe1161019d578063488ff1c81161016c578063488ff1c8146103a55780635c975abb146103d55780636352211e146103f357806370a0823114610423578063715018a61461045357610206565b806320c7fdfe1461034557806323b872dd146103635780633f4ba83a1461037f57806342842e0e1461038957610206565b806314cad21d116101d957806314cad21d146102a5578063153b0d1e146102c15780631e42bfba146102dd5780632096eb151461031557610206565b806301ffc9a71461020b57806306fdde031461023b578063081812fc14610259578063095ea7b314610289575b600080fd5b61022560048036038101906102209190613e03565b6106a7565b6040516102329190613e4b565b60405180910390f35b6102436106b9565b6040516102509190613ef6565b60405180910390f35b610273600480360381019061026e9190613f4e565b61074b565b6040516102809190613fbc565b60405180910390f35b6102a3600480360381019061029e9190614003565b610791565b005b6102bf60048036038101906102ba9190613f4e565b6108a8565b005b6102db60048036038101906102d6919061406f565b610d39565b005b6102f760048036038101906102f29190613f4e565b610ece565b60405161030c999897969594939291906140be565b60405180910390f35b61032f600480360381019061032a9190614287565b61101e565b60405161033c91906142f6565b60405180910390f35b61034d6117d2565b60405161035a91906142f6565b60405180910390f35b61037d60048036038101906103789190614311565b6117d9565b005b610387611839565b005b6103a3600480360381019061039e9190614311565b61184b565b005b6103bf60048036038101906103ba9190614003565b61186b565b6040516103cc91906142f6565b60405180910390f35b6103dd61189c565b6040516103ea9190613e4b565b60405180910390f35b61040d60048036038101906104089190613f4e565b6118b3565b60405161041a9190613fbc565b60405180910390f35b61043d60048036038101906104389190614364565b611939565b60405161044a91906142f6565b60405180910390f35b61045b6119f0565b005b610465611a04565b6040516104729190613fbc565b60405180910390f35b610483611a2a565b005b61049f600480360381019061049a9190613f4e565b611a3c565b005b6104a9611a91565b6040516104b69190613fbc565b60405180910390f35b6104c7611abb565b6040516104d49190613ef6565b60405180910390f35b6104f760048036038101906104f291906143f1565b611b4d565b005b610513600480360381019061050e919061406f565b611cba565b005b61052f600480360381019061052a91906144df565b611cd0565b005b61054b60048036038101906105469190614562565b611d32565b6040516105589190613e4b565b60405180910390f35b610569611dfe565b60405161057691906142f6565b60405180910390f35b61059960048036038101906105949190613f4e565b611e04565b6040516105a69190613ef6565b60405180910390f35b6105c960048036038101906105c491906145d8565b611e16565b6040516105d69190613e4b565b60405180910390f35b6105f960048036038101906105f49190614364565b611e36565b6040516106069190613e4b565b60405180910390f35b61062960048036038101906106249190614562565b611e56565b6040516106369190613e4b565b60405180910390f35b61065960048036038101906106549190614605565b611eea565b005b61067560048036038101906106709190614364565b6121aa565b604051610682919061471f565b60405180910390f35b6106a560048036038101906106a09190614364565b612241565b005b60006106b2826122c4565b9050919050565b6060600080546106c890614770565b80601f01602080910402602001604051908101604052809291908181526020018280546106f490614770565b80156107415780601f1061071657610100808354040283529160200191610741565b820191906000526020600020905b81548152906001019060200180831161072457829003601f168201915b5050505050905090565b600061075682612325565b6004600083815260200190815260200160002060009054906101000a900473ffffffffffffffffffffffffffffffffffffffff169050919050565b600061079c826118b3565b90508073ffffffffffffffffffffffffffffffffffffffff168373ffffffffffffffffffffffffffffffffffffffff160361080c576040517f08c379a000000000000000000000000000000000000000000000000000000000815260040161080390614813565b60405180910390fd5b8073ffffffffffffffffffffffffffffffffffffffff1661082b612370565b73ffffffffffffffffffffffffffffffffffffffff16148061085a575061085981610854612370565b611e56565b5b610899576040517f08c379a0000000000000000000000000000000000000000000000000000000008152600401610890906148a5565b60405180910390fd5b6108a38383612378565b505050565b6108b0612431565b6108b8612480565b6000600d600083815260200190815260200160002090508060060160009054906101000a900460ff16610920576040517f08c379a000000000000000000000000000000000000000000000000000000000815260040161091790614911565b60405180910390fd5b8060060160019054906101000a900460ff1615610972576040517f08c379a00000000000000000000000000000000000000000000000000000000081526004016109699061497d565b60405180910390fd5b8060000160009054906101000a900473ffffffffffffffffffffffffffffffffffffffff1673ffffffffffffffffffffffffffffffffffffffff163373ffffffffffffffffffffffffffffffffffffffff161480610a1f57508060010160009054906101000a900473ffffffffffffffffffffffffffffffffffffffff1673ffffffffffffffffffffffffffffffffffffffff163373ffffffffffffffffffffffffffffffffffffffff16145b610a5e576040517f08c379a0000000000000000000000000000000000000000000000000000000008152600401610a55906149e9565b60405180910390fd5b600e60003373ffffffffffffffffffffffffffffffffffffffff1673ffffffffffffffffffffffffffffffffffffffff16815260200190815260200160002060009054906101000a900460ff1615610aeb576040517f08c379a0000000000000000000000000000000000000000000000000000000008152600401610ae290614a55565b60405180910390fd5b620151808160040154610afe9190614aa4565b421115610b40576040517f08c379a0000000000000000000000000000000000000000000000000000000008152600401610b3790614b24565b60405180910390fd5b8060000160009054906101000a900473ffffffffffffffffffffffffffffffffffffffff1673ffffffffffffffffffffffffffffffffffffffff163373ffffffffffffffffffffffffffffffffffffffff16148015610ba3575060008160020154145b15610c05574281600201819055503373ffffffffffffffffffffffffffffffffffffffff16827f9c8a9fd1d251758b0709d8cb301683250c728ef2b53871489f121c7b86f373b342604051610bf891906142f6565b60405180910390a3610d06565b8060010160009054906101000a900473ffffffffffffffffffffffffffffffffffffffff1673ffffffffffffffffffffffffffffffffffffffff163373ffffffffffffffffffffffffffffffffffffffff16148015610c68575060008160030154145b15610cca574281600301819055503373ffffffffffffffffffffffffffffffffffffffff16827f9c8a9fd1d251758b0709d8cb301683250c728ef2b53871489f121c7b86f373b342604051610cbd91906142f6565b60405180910390a3610d05565b6040517f08c379a0000000000000000000000000000000000000000000000000000000008152600401610cfc90614bb6565b60405180910390fd5b5b60008160020154118015610d1e575060008160030154115b15610d2d57610d2c826124ca565b5b50610d36612a44565b50565b610d41612a4e565b600073ffffffffffffffffffffffffffffffffffffffff168273ffffffffffffffffffffffffffffffffffffffff1603610db0576040517f08c379a0000000000000000000000000000000000000000000000000000000008152600401610da790614c48565b60405180910390fd5b610db8611a91565b73ffffffffffffffffffffffffffffffffffffffff168273ffffffffffffffffffffffffffffffffffffffff1603610e25576040517f08c379a0000000000000000000000000000000000000000000000000000000008152600401610e1c90614cda565b60405180910390fd5b80600e60008473ffffffffffffffffffffffffffffffffffffffff1673ffffffffffffffffffffffffffffffffffffffff16815260200190815260200160002060006101000a81548160ff0219169083151502179055508173ffffffffffffffffffffffffffffffffffffffff167f97b7af35c8c05eca90f543eb78b16fdf2664d3e6c9a907286f310647d9813b7182604051610ec29190613e4b565b60405180910390a25050565b600d6020528060005260406000206000915090508060000160009054906101000a900473ffffffffffffffffffffffffffffffffffffffff16908060010160009054906101000a900473ffffffffffffffffffffffffffffffffffffffff1690806002015490806003015490806004015490806005018054610f4f90614770565b80601f0160208091040260200160405190810160405280929190818152602001828054610f7b90614770565b8015610fc85780601f10610f9d57610100808354040283529160200191610fc8565b820191906000526020600020905b815481529060010190602001808311610fab57829003601f168201915b5050505050908060060160009054906101000a900460ff16908060060160019054906101000a900460ff16908060060160029054906101000a900473ffffffffffffffffffffffffffffffffffffffff16905089565b6000611028612431565b611030612480565b600073ffffffffffffffffffffffffffffffffffffffff168473ffffffffffffffffffffffffffffffffffffffff161415801561109a5750600073ffffffffffffffffffffffffffffffffffffffff168373ffffffffffffffffffffffffffffffffffffffff1614155b6110d9576040517f08c379a00000000000000000000000000000000000000000000000000000000081526004016110d090614d6c565b60405180910390fd5b8273ffffffffffffffffffffffffffffffffffffffff168473ffffffffffffffffffffffffffffffffffffffff1603611147576040517f08c379a000000000000000000000000000000000000000000000000000000000815260040161113e90614dfe565b60405180910390fd5b8373ffffffffffffffffffffffffffffffffffffffff163373ffffffffffffffffffffffffffffffffffffffff1614806111ac57508273ffffffffffffffffffffffffffffffffffffffff163373ffffffffffffffffffffffffffffffffffffffff16145b6111eb576040517f08c379a00000000000000000000000000000000000000000000000000000000081526004016111e290614e90565b60405180910390fd5b600e60008573ffffffffffffffffffffffffffffffffffffffff1673ffffffffffffffffffffffffffffffffffffffff16815260200190815260200160002060009054906101000a900460ff1615801561128f5750600e60008473ffffffffffffffffffffffffffffffffffffffff1673ffffffffffffffffffffffffffffffffffffffff16815260200190815260200160002060009054906101000a900460ff16155b6112ce576040517f08c379a00000000000000000000000000000000000000000000000000000000081526004016112c590614f22565b60405180910390fd5b6000825111611312576040517f08c379a000000000000000000000000000000000000000000000000000000000815260040161130990614fb4565b60405180910390fd5b60008373ffffffffffffffffffffffffffffffffffffffff168573ffffffffffffffffffffffffffffffffffffffff161061134d578361134f565b845b8473ffffffffffffffffffffffffffffffffffffffff168673ffffffffffffffffffffffffffffffffffffffff1610611388578561138a565b845b60405160200161139b92919061501c565b6040516020818303038152906040528051906020012090506010600082815260200190815260200160002060009054906101000a900460ff1615611414576040517f08c379a000000000000000000000000000000000000000000000000000000000815260040161140b906150ba565b60405180910390fd5b61141e600a612acc565b600061142a600a612ae2565b90506040518061012001604052808773ffffffffffffffffffffffffffffffffffffffff1681526020018673ffffffffffffffffffffffffffffffffffffffff1681526020018773ffffffffffffffffffffffffffffffffffffffff163373ffffffffffffffffffffffffffffffffffffffff16146114aa5760006114ac565b425b81526020018673ffffffffffffffffffffffffffffffffffffffff163373ffffffffffffffffffffffffffffffffffffffff16146114eb5760006114ed565b425b81526020014281526020018581526020016001151581526020016000151581526020013373ffffffffffffffffffffffffffffffffffffffff16815250600d600083815260200190815260200160002060008201518160000160006101000a81548173ffffffffffffffffffffffffffffffffffffffff021916908373ffffffffffffffffffffffffffffffffffffffff16021790555060208201518160010160006101000a81548173ffffffffffffffffffffffffffffffffffffffff021916908373ffffffffffffffffffffffffffffffffffffffff16021790555060408201518160020155606082015181600301556080820151816004015560a08201518160050190816115fe9190615286565b5060c08201518160060160006101000a81548160ff02191690831515021790555060e08201518160060160016101000a81548160ff0219169083151502179055506101008201518160060160026101000a81548173ffffffffffffffffffffffffffffffffffffffff021916908373ffffffffffffffffffffffffffffffffffffffff160217905550905050600f60008773ffffffffffffffffffffffffffffffffffffffff1673ffffffffffffffffffffffffffffffffffffffff168152602001908152602001600020819080600181540180825580915050600190039060005260206000200160009091909190915055600f60008673ffffffffffffffffffffffffffffffffffffffff1673ffffffffffffffffffffffffffffffffffffffff1681526020019081526020016000208190806001815401808255809150506001900390600052602060002001600090919091909150558473ffffffffffffffffffffffffffffffffffffffff168673ffffffffffffffffffffffffffffffffffffffff16827f97067745e0b9a0a73664b4f70f523527c0c7ff4da08c1aa0d7d034385da9ced633426040516117b6929190615358565b60405180910390a480925050506117cb612a44565b9392505050565b6201518081565b6117ea6117e4612370565b82612af0565b611829576040517f08c379a0000000000000000000000000000000000000000000000000000000008152600401611820906153f3565b60405180910390fd5b611834838383612b85565b505050565b611841612a4e565b611849612e7e565b565b61186683838360405180602001604052806000815250611cd0565b505050565b600f602052816000526040600020818154811061188757600080fd5b90600052602060002001600091509150505481565b6000600960009054906101000a900460ff16905090565b6000806118bf83612ee1565b9050600073ffffffffffffffffffffffffffffffffffffffff168173ffffffffffffffffffffffffffffffffffffffff1603611930576040517f08c379a00000000000000000000000000000000000000000000000000000000081526004016119279061545f565b60405180910390fd5b80915050919050565b60008073ffffffffffffffffffffffffffffffffffffffff168273ffffffffffffffffffffffffffffffffffffffff16036119a9576040517f08c379a00000000000000000000000000000000000000000000000000000000081526004016119a0906154f1565b60405180910390fd5b600360008373ffffffffffffffffffffffffffffffffffffffff1673ffffffffffffffffffffffffffffffffffffffff168152602001908152602001600020549050919050565b6119f8612a4e565b611a026000612f1e565b565b600c60009054906101000a900473ffffffffffffffffffffffffffffffffffffffff1681565b611a32612a4e565b611a3a612fe4565b565b611a44612a4e565b60008111611a87576040517f08c379a0000000000000000000000000000000000000000000000000000000008152600401611a7e90615583565b60405180910390fd5b80600b8190555050565b6000600760009054906101000a900473ffffffffffffffffffffffffffffffffffffffff16905090565b606060018054611aca90614770565b80601f0160208091040260200160405190810160405280929190818152602001828054611af690614770565b8015611b435780601f10611b1857610100808354040283529160200191611b43565b820191906000526020600020905b815481529060010190602001808311611b2657829003601f168201915b5050505050905090565b60005b82829050811015611cb5576000838383818110611b7057611b6f6155a3565b5b9050602002013590506000600d600083815260200190815260200160002090508060060160009054906101000a900460ff168015611bbd57508060060160019054906101000a900460ff16155b8015611bda5750620151808160040154611bd79190614aa4565b42115b15611ca65760008160060160006101000a81548160ff021916908315150217905550611c2a8160000160009054906101000a900473ffffffffffffffffffffffffffffffffffffffff1683613047565b611c588160010160009054906101000a900473ffffffffffffffffffffffffffffffffffffffff1683613047565b3373ffffffffffffffffffffffffffffffffffffffff16827f29c569c563efc41e7cb508fe59ddcd0676dc7b7047ad7a776126941b3e664ab1604051611c9d9061561e565b60405180910390a35b50508080600101915050611b50565b505050565b611ccc611cc5612370565b838361314b565b5050565b611ce1611cdb612370565b83612af0565b611d20576040517f08c379a0000000000000000000000000000000000000000000000000000000008152600401611d17906153f3565b60405180910390fd5b611d2c848484846132b7565b50505050565b6000808273ffffffffffffffffffffffffffffffffffffffff168473ffffffffffffffffffffffffffffffffffffffff1610611d6e5782611d70565b835b8373ffffffffffffffffffffffffffffffffffffffff168573ffffffffffffffffffffffffffffffffffffffff1610611da95784611dab565b835b604051602001611dbc92919061501c565b6040516020818303038152906040528051906020012090506010600082815260200190815260200160002060009054906101000a900460ff1691505092915050565b600b5481565b6060611e0f82613313565b9050919050565b60106020528060005260406000206000915054906101000a900460ff1681565b600e6020528060005260406000206000915054906101000a900460ff1681565b6000600560008473ffffffffffffffffffffffffffffffffffffffff1673ffffffffffffffffffffffffffffffffffffffff16815260200190815260200160002060008373ffffffffffffffffffffffffffffffffffffffff1673ffffffffffffffffffffffffffffffffffffffff16815260200190815260200160002060009054906101000a900460ff16905092915050565b611ef2612431565b6000600d600084815260200190815260200160002090508060060160009054906101000a900460ff16611f5a576040517f08c379a0000000000000000000000000000000000000000000000000000000008152600401611f5190614911565b60405180910390fd5b8060060160019054906101000a900460ff1615611fac576040517f08c379a0000000000000000000000000000000000000000000000000000000008152600401611fa39061497d565b60405180910390fd5b8060000160009054906101000a900473ffffffffffffffffffffffffffffffffffffffff1673ffffffffffffffffffffffffffffffffffffffff163373ffffffffffffffffffffffffffffffffffffffff16148061205957508060010160009054906101000a900473ffffffffffffffffffffffffffffffffffffffff1673ffffffffffffffffffffffffffffffffffffffff163373ffffffffffffffffffffffffffffffffffffffff16145b806120965750612067611a91565b73ffffffffffffffffffffffffffffffffffffffff163373ffffffffffffffffffffffffffffffffffffffff16145b6120d5576040517f08c379a00000000000000000000000000000000000000000000000000000000081526004016120cc906156b0565b60405180910390fd5b60008160060160006101000a81548160ff0219169083151502179055506121208160000160009054906101000a900473ffffffffffffffffffffffffffffffffffffffff1684613047565b61214e8160010160009054906101000a900473ffffffffffffffffffffffffffffffffffffffff1684613047565b3373ffffffffffffffffffffffffffffffffffffffff16837f29c569c563efc41e7cb508fe59ddcd0676dc7b7047ad7a776126941b3e664ab1846040516121959190613ef6565b60405180910390a3506121a6612a44565b5050565b6060600f60008373ffffffffffffffffffffffffffffffffffffffff1673ffffffffffffffffffffffffffffffffffffffff16815260200190815260200160002080548060200260200160405190810160405280929190818152602001828054801561223557602002820191906000526020600020905b815481526020019060010190808311612221575b50505050509050919050565b612249612a4e565b600073ffffffffffffffffffffffffffffffffffffffff168173ffffffffffffffffffffffffffffffffffffffff16036122b8576040517f08c379a00000000000000000000000000000000000000000000000000000000081526004016122af90615742565b60405180910390fd5b6122c181612f1e565b50565b6000634906490660e01b7bffffffffffffffffffffffffffffffffffffffffffffffffffffffff1916827bffffffffffffffffffffffffffffffffffffffffffffffffffffffff1916148061231e575061231d82613425565b5b9050919050565b61232e81613507565b61236d576040517f08c379a00000000000000000000000000000000000000000000000000000000081526004016123649061545f565b60405180910390fd5b50565b600033905090565b816004600083815260200190815260200160002060006101000a81548173ffffffffffffffffffffffffffffffffffffffff021916908373ffffffffffffffffffffffffffffffffffffffff160217905550808273ffffffffffffffffffffffffffffffffffffffff166123eb836118b3565b73ffffffffffffffffffffffffffffffffffffffff167f8c5be1e5ebec7d5bd14f71427d1e84f3dd0314c0f7b2291e5b200ac8c7c3b92560405160405180910390a45050565b600260085403612476576040517f08c379a000000000000000000000000000000000000000000000000000000000815260040161246d906157ae565b60405180910390fd5b6002600881905550565b61248861189c565b156124c8576040517f08c379a00000000000000000000000000000000000000000000000000000000081526004016124bf9061581a565b60405180910390fd5b565b6000600d600083815260200190815260200160002090506125338160000160009054906101000a900473ffffffffffffffffffffffffffffffffffffffff168260010160009054906101000a900473ffffffffffffffffffffffffffffffffffffffff16613548565b612572576040517f08c379a0000000000000000000000000000000000000000000000000000000008152600401612569906158ac565b60405180910390fd5b60006001612580600a612ae2565b61258a9190614aa4565b9050612596600a612acc565b6125c48260000160009054906101000a900473ffffffffffffffffffffffffffffffffffffffff1684613554565b6125f28260010160009054906101000a900473ffffffffffffffffffffffffffffffffffffffff1682613554565b6126888383600501805461260590614770565b80601f016020809104026020016040519081016040528092919081815260200182805461263190614770565b801561267e5780601f106126535761010080835404028352916020019161267e565b820191906000526020600020905b81548152906001019060200180831161266157829003601f168201915b5050505050613572565b61271e8183600501805461269b90614770565b80601f01602080910402602001604051908101604052809291908181526020018280546126c790614770565b80156127145780601f106126e957610100808354040283529160200191612714565b820191906000526020600020905b8154815290600101906020018083116126f757829003601f168201915b5050505050613572565b60018260060160016101000a81548160ff02191690831515021790555060008260060160006101000a81548160ff02191690831515021790555060008260010160009054906101000a900473ffffffffffffffffffffffffffffffffffffffff1673ffffffffffffffffffffffffffffffffffffffff168360000160009054906101000a900473ffffffffffffffffffffffffffffffffffffffff1673ffffffffffffffffffffffffffffffffffffffff16106127ff578260010160009054906101000a900473ffffffffffffffffffffffffffffffffffffffff16612825565b8260000160009054906101000a900473ffffffffffffffffffffffffffffffffffffffff165b8360010160009054906101000a900473ffffffffffffffffffffffffffffffffffffffff1673ffffffffffffffffffffffffffffffffffffffff168460000160009054906101000a900473ffffffffffffffffffffffffffffffffffffffff1673ffffffffffffffffffffffffffffffffffffffff16106128ca578360000160009054906101000a900473ffffffffffffffffffffffffffffffffffffffff166128f0565b8360010160009054906101000a900473ffffffffffffffffffffffffffffffffffffffff165b60405160200161290192919061501c565b60405160208183030381529060405280519060200120905060016010600083815260200190815260200160002060006101000a81548160ff0219169083151502179055506129738360000160009054906101000a900473ffffffffffffffffffffffffffffffffffffffff1685613047565b6129a18360010160009054906101000a900473ffffffffffffffffffffffffffffffffffffffff1685613047565b8260000160009054906101000a900473ffffffffffffffffffffffffffffffffffffffff1673ffffffffffffffffffffffffffffffffffffffff1682857f6fdefa09245a356e3bb1b95c80bfbf330c9ced365c718117df0c3ec1cca26d548660010160009054906101000a900473ffffffffffffffffffffffffffffffffffffffff1687600501604051612a36929190615950565b60405180910390a450505050565b6001600881905550565b612a56612370565b73ffffffffffffffffffffffffffffffffffffffff16612a74611a91565b73ffffffffffffffffffffffffffffffffffffffff1614612aca576040517f08c379a0000000000000000000000000000000000000000000000000000000008152600401612ac1906159cc565b60405180910390fd5b565b6001816000016000828254019250508190555050565b600081600001549050919050565b600080612afc836118b3565b90508073ffffffffffffffffffffffffffffffffffffffff168473ffffffffffffffffffffffffffffffffffffffff161480612b3e5750612b3d8185611e56565b5b80612b7c57508373ffffffffffffffffffffffffffffffffffffffff16612b648461074b565b73ffffffffffffffffffffffffffffffffffffffff16145b91505092915050565b8273ffffffffffffffffffffffffffffffffffffffff16612ba5826118b3565b73ffffffffffffffffffffffffffffffffffffffff1614612bfb576040517f08c379a0000000000000000000000000000000000000000000000000000000008152600401612bf290615a5e565b60405180910390fd5b600073ffffffffffffffffffffffffffffffffffffffff168273ffffffffffffffffffffffffffffffffffffffff1603612c6a576040517f08c379a0000000000000000000000000000000000000000000000000000000008152600401612c6190615af0565b60405180910390fd5b612c778383836001613616565b8273ffffffffffffffffffffffffffffffffffffffff16612c97826118b3565b73ffffffffffffffffffffffffffffffffffffffff1614612ced576040517f08c379a0000000000000000000000000000000000000000000000000000000008152600401612ce490615a5e565b60405180910390fd5b6004600082815260200190815260200160002060006101000a81549073ffffffffffffffffffffffffffffffffffffffff02191690556001600360008573ffffffffffffffffffffffffffffffffffffffff1673ffffffffffffffffffffffffffffffffffffffff168152602001908152602001600020600082825403925050819055506001600360008473ffffffffffffffffffffffffffffffffffffffff1673ffffffffffffffffffffffffffffffffffffffff16815260200190815260200160002060008282540192505081905550816002600083815260200190815260200160002060006101000a81548173ffffffffffffffffffffffffffffffffffffffff021916908373ffffffffffffffffffffffffffffffffffffffff160217905550808273ffffffffffffffffffffffffffffffffffffffff168473ffffffffffffffffffffffffffffffffffffffff167fddf252ad1be2c89b69c2b068fc378daa952ba7f163c4a11628f55a4df523b3ef60405160405180910390a4612e79838383600161361c565b505050565b612e86613622565b6000600960006101000a81548160ff0219169083151502179055507f5db9ee0a495bf2e6ff9c91a7834c1ba4fdd244a5e8aa4e537bd38aeae4b073aa612eca612370565b604051612ed79190613fbc565b60405180910390a1565b60006002600083815260200190815260200160002060009054906101000a900473ffffffffffffffffffffffffffffffffffffffff169050919050565b6000600760009054906101000a900473ffffffffffffffffffffffffffffffffffffffff16905081600760006101000a81548173ffffffffffffffffffffffffffffffffffffffff021916908373ffffffffffffffffffffffffffffffffffffffff1602179055508173ffffffffffffffffffffffffffffffffffffffff168173ffffffffffffffffffffffffffffffffffffffff167f8be0079c531659141344cd1fd0a4f28419497f9722a3daafe3b4186f6b6457e060405160405180910390a35050565b612fec612480565b6001600960006101000a81548160ff0219169083151502179055507f62e78cea01bee320cd4e420270b5ea74000d11b0c9f74754ebdbfc544b05a258613030612370565b60405161303d9190613fbc565b60405180910390a1565b6000600f60008473ffffffffffffffffffffffffffffffffffffffff1673ffffffffffffffffffffffffffffffffffffffff168152602001908152602001600020905060005b818054905081101561314557828282815481106130ad576130ac6155a3565b5b9060005260206000200154036131385781600183805490506130cf9190615b10565b815481106130e0576130df6155a3565b5b90600052602060002001548282815481106130fe576130fd6155a3565b5b90600052602060002001819055508180548061311d5761311c615b44565b5b60019003818190600052602060002001600090559055613145565b808060010191505061308d565b50505050565b8173ffffffffffffffffffffffffffffffffffffffff168373ffffffffffffffffffffffffffffffffffffffff16036131b9576040517f08c379a00000000000000000000000000000000000000000000000000000000081526004016131b090615bbf565b60405180910390fd5b80600560008573ffffffffffffffffffffffffffffffffffffffff1673ffffffffffffffffffffffffffffffffffffffff16815260200190815260200160002060008473ffffffffffffffffffffffffffffffffffffffff1673ffffffffffffffffffffffffffffffffffffffff16815260200190815260200160002060006101000a81548160ff0219169083151502179055508173ffffffffffffffffffffffffffffffffffffffff168373ffffffffffffffffffffffffffffffffffffffff167f17307eab39ab6107e8899845ad3d59bd9653f200f220920489ca2b5937696c31836040516132aa9190613e4b565b60405180910390a3505050565b6132c2848484612b85565b6132ce8484848461366b565b61330d576040517f08c379a000000000000000000000000000000000000000000000000000000000815260040161330490615c51565b60405180910390fd5b50505050565b606061331e82612325565b600060066000848152602001908152602001600020805461333e90614770565b80601f016020809104026020016040519081016040528092919081815260200182805461336a90614770565b80156133b75780601f1061338c576101008083540402835291602001916133b7565b820191906000526020600020905b81548152906001019060200180831161339a57829003601f168201915b5050505050905060006133c86137f2565b905060008151036133dd578192505050613420565b6000825111156134125780826040516020016133fa929190615cad565b60405160208183030381529060405292505050613420565b61341b84613809565b925050505b919050565b60007f80ac58cd000000000000000000000000000000000000000000000000000000007bffffffffffffffffffffffffffffffffffffffffffffffffffffffff1916827bffffffffffffffffffffffffffffffffffffffffffffffffffffffff191614806134f057507f5b5e139f000000000000000000000000000000000000000000000000000000007bffffffffffffffffffffffffffffffffffffffffffffffffffffffff1916827bffffffffffffffffffffffffffffffffffffffffffffffffffffffff1916145b8061350057506134ff82613871565b5b9050919050565b60008073ffffffffffffffffffffffffffffffffffffffff1661352983612ee1565b73ffffffffffffffffffffffffffffffffffffffff1614159050919050565b60006001905092915050565b61356e8282604051806020016040528060008152506138db565b5050565b61357b82613507565b6135ba576040517f08c379a00000000000000000000000000000000000000000000000000000000081526004016135b190615d43565b60405180910390fd5b806006600084815260200190815260200160002090816135da9190615286565b507ff8e1a15aba9398e019f0b49df1a4fde98ee17ae345cb5f6b5e2c27f5033e8ce78260405161360a91906142f6565b60405180910390a15050565b50505050565b50505050565b61362a61189c565b613669576040517f08c379a000000000000000000000000000000000000000000000000000000000815260040161366090615daf565b60405180910390fd5b565b600061368c8473ffffffffffffffffffffffffffffffffffffffff16613936565b156137e5578373ffffffffffffffffffffffffffffffffffffffff1663150b7a026136b5612370565b8786866040518563ffffffff1660e01b81526004016136d79493929190615e24565b6020604051808303816000875af192505050801561371357506040513d601f19601f820116820180604052508101906137109190615e85565b60015b613795573d8060008114613743576040519150601f19603f3d011682016040523d82523d6000602084013e613748565b606091505b50600081510361378d576040517f08c379a000000000000000000000000000000000000000000000000000000000815260040161378490615c51565b60405180910390fd5b805181602001fd5b63150b7a0260e01b7bffffffffffffffffffffffffffffffffffffffffffffffffffffffff1916817bffffffffffffffffffffffffffffffffffffffffffffffffffffffff1916149150506137ea565b600190505b949350505050565b606060405180602001604052806000815250905090565b606061381482612325565b600061381e6137f2565b9050600081511161383e5760405180602001604052806000815250613869565b8061384884613959565b604051602001613859929190615cad565b6040516020818303038152906040525b915050919050565b60007f01ffc9a7000000000000000000000000000000000000000000000000000000007bffffffffffffffffffffffffffffffffffffffffffffffffffffffff1916827bffffffffffffffffffffffffffffffffffffffffffffffffffffffff1916149050919050565b6138e58383613a27565b6138f2600084848461366b565b613931576040517f08c379a000000000000000000000000000000000000000000000000000000000815260040161392890615c51565b60405180910390fd5b505050565b6000808273ffffffffffffffffffffffffffffffffffffffff163b119050919050565b60606000600161396884613c44565b01905060008167ffffffffffffffff8111156139875761398661415c565b5b6040519080825280601f01601f1916602001820160405280156139b95781602001600182028036833780820191505090505b509050600082602001820190505b600115613a1c578080600190039150507f3031323334353637383961626364656600000000000000000000000000000000600a86061a8153600a8581613a1057613a0f615eb2565b5b049450600085036139c7575b819350505050919050565b600073ffffffffffffffffffffffffffffffffffffffff168273ffffffffffffffffffffffffffffffffffffffff1603613a96576040517f08c379a0000000000000000000000000000000000000000000000000000000008152600401613a8d90615f2d565b60405180910390fd5b613a9f81613507565b15613adf576040517f08c379a0000000000000000000000000000000000000000000000000000000008152600401613ad690615f99565b60405180910390fd5b613aed600083836001613616565b613af681613507565b15613b36576040517f08c379a0000000000000000000000000000000000000000000000000000000008152600401613b2d90615f99565b60405180910390fd5b6001600360008473ffffffffffffffffffffffffffffffffffffffff1673ffffffffffffffffffffffffffffffffffffffff16815260200190815260200160002060008282540192505081905550816002600083815260200190815260200160002060006101000a81548173ffffffffffffffffffffffffffffffffffffffff021916908373ffffffffffffffffffffffffffffffffffffffff160217905550808273ffffffffffffffffffffffffffffffffffffffff16600073ffffffffffffffffffffffffffffffffffffffff167fddf252ad1be2c89b69c2b068fc378daa952ba7f163c4a11628f55a4df523b3ef60405160405180910390a4613c4060008383600161361c565b5050565b600080600090507a184f03e93ff9f4daa797ed6e38ed64bf6a1f0100000000000000008310613ca2577a184f03e93ff9f4daa797ed6e38ed64bf6a1f0100000000000000008381613c9857613c97615eb2565b5b0492506040810190505b6d04ee2d6d415b85acef81000000008310613cdf576d04ee2d6d415b85acef81000000008381613cd557613cd4615eb2565b5b0492506020810190505b662386f26fc100008310613d0e57662386f26fc100008381613d0457613d03615eb2565b5b0492506010810190505b6305f5e1008310613d37576305f5e1008381613d2d57613d2c615eb2565b5b0492506008810190505b6127108310613d5c576127108381613d5257613d51615eb2565b5b0492506004810190505b60648310613d7f5760648381613d7557613d74615eb2565b5b0492506002810190505b600a8310613d8e576001810190505b80915050919050565b6000604051905090565b600080fd5b600080fd5b60007fffffffff0000000000000000000000000000000000000000000000000000000082169050919050565b613de081613dab565b8114613deb57600080fd5b50565b600081359050613dfd81613dd7565b92915050565b600060208284031215613e1957613e18613da1565b5b6000613e2784828501613dee565b91505092915050565b60008115159050919050565b613e4581613e30565b82525050565b6000602082019050613e606000830184613e3c565b92915050565b600081519050919050565b600082825260208201905092915050565b60005b83811015613ea0578082015181840152602081019050613e85565b60008484015250505050565b6000601f19601f8301169050919050565b6000613ec882613e66565b613ed28185613e71565b9350613ee2818560208601613e82565b613eeb81613eac565b840191505092915050565b60006020820190508181036000830152613f108184613ebd565b905092915050565b6000819050919050565b613f2b81613f18565b8114613f3657600080fd5b50565b600081359050613f4881613f22565b92915050565b600060208284031215613f6457613f63613da1565b5b6000613f7284828501613f39565b91505092915050565b600073ffffffffffffffffffffffffffffffffffffffff82169050919050565b6000613fa682613f7b565b9050919050565b613fb681613f9b565b82525050565b6000602082019050613fd16000830184613fad565b92915050565b613fe081613f9b565b8114613feb57600080fd5b50565b600081359050613ffd81613fd7565b92915050565b6000806040838503121561401a57614019613da1565b5b600061402885828601613fee565b925050602061403985828601613f39565b9150509250929050565b61404c81613e30565b811461405757600080fd5b50565b60008135905061406981614043565b92915050565b6000806040838503121561408657614085613da1565b5b600061409485828601613fee565b92505060206140a58582860161405a565b9150509250929050565b6140b881613f18565b82525050565b6000610120820190506140d4600083018c613fad565b6140e1602083018b613fad565b6140ee604083018a6140af565b6140fb60608301896140af565b61410860808301886140af565b81810360a083015261411a8187613ebd565b905061412960c0830186613e3c565b61413660e0830185613e3c565b614144610100830184613fad565b9a9950505050505050505050565b600080fd5b600080fd5b7f4e487b7100000000000000000000000000000000000000000000000000000000600052604160045260246000fd5b61419482613eac565b810181811067ffffffffffffffff821117156141b3576141b261415c565b5b80604052505050565b60006141c6613d97565b90506141d2828261418b565b919050565b600067ffffffffffffffff8211156141f2576141f161415c565b5b6141fb82613eac565b9050602081019050919050565b82818337600083830152505050565b600061422a614225846141d7565b6141bc565b90508281526020810184848401111561424657614245614157565b5b614251848285614208565b509392505050565b600082601f83011261426e5761426d614152565b5b813561427e848260208601614217565b91505092915050565b6000806000606084860312156142a05761429f613da1565b5b60006142ae86828701613fee565b93505060206142bf86828701613fee565b925050604084013567ffffffffffffffff8111156142e0576142df613da6565b5b6142ec86828701614259565b9150509250925092565b600060208201905061430b60008301846140af565b92915050565b60008060006060848603121561432a57614329613da1565b5b600061433886828701613fee565b935050602061434986828701613fee565b925050604061435a86828701613f39565b9150509250925092565b60006020828403121561437a57614379613da1565b5b600061438884828501613fee565b91505092915050565b600080fd5b600080fd5b60008083601f8401126143b1576143b0614152565b5b8235905067ffffffffffffffff8111156143ce576143cd614391565b5b6020830191508360208202830111156143ea576143e9614396565b5b9250929050565b6000806020838503121561440857614407613da1565b5b600083013567ffffffffffffffff81111561442657614425613da6565b5b6144328582860161439b565b92509250509250929050565b600067ffffffffffffffff8211156144595761445861415c565b5b61446282613eac565b9050602081019050919050565b600061448261447d8461443e565b6141bc565b90508281526020810184848401111561449e5761449d614157565b5b6144a9848285614208565b509392505050565b600082601f8301126144c6576144c5614152565b5b81356144d684826020860161446f565b91505092915050565b600080600080608085870312156144f9576144f8613da1565b5b600061450787828801613fee565b945050602061451887828801613fee565b935050604061452987828801613f39565b925050606085013567ffffffffffffffff81111561454a57614549613da6565b5b614556878288016144b1565b91505092959194509250565b6000806040838503121561457957614578613da1565b5b600061458785828601613fee565b925050602061459885828601613fee565b9150509250929050565b6000819050919050565b6145b5816145a2565b81146145c057600080fd5b50565b6000813590506145d2816145ac565b92915050565b6000602082840312156145ee576145ed613da1565b5b60006145fc848285016145c3565b91505092915050565b6000806040838503121561461c5761461b613da1565b5b600061462a85828601613f39565b925050602083013567ffffffffffffffff81111561464b5761464a613da6565b5b61465785828601614259565b9150509250929050565b600081519050919050565b600082825260208201905092915050565b6000819050602082019050919050565b61469681613f18565b82525050565b60006146a8838361468d565b60208301905092915050565b6000602082019050919050565b60006146cc82614661565b6146d6818561466c565b93506146e18361467d565b8060005b838110156147125781516146f9888261469c565b9750614704836146b4565b9250506001810190506146e5565b5085935050505092915050565b6000602082019050818103600083015261473981846146c1565b905092915050565b7f4e487b7100000000000000000000000000000000000000000000000000000000600052602260045260246000fd5b6000600282049050600182168061478857607f821691505b60208210810361479b5761479a614741565b5b50919050565b7f4552433732313a20617070726f76616c20746f2063757272656e74206f776e6560008201527f7200000000000000000000000000000000000000000000000000000000000000602082015250565b60006147fd602183613e71565b9150614808826147a1565b604082019050919050565b6000602082019050818103600083015261482c816147f0565b9050919050565b7f4552433732313a20617070726f76652063616c6c6572206973206e6f7420746f60008201527f6b656e206f776e6572206f7220617070726f76656420666f7220616c6c000000602082015250565b600061488f603d83613e71565b915061489a82614833565b604082019050919050565b600060208201905081810360008301526148be81614882565b9050919050565b7f436f75706c654e46543a2052657175657374206973206e6f7420616374697665600082015250565b60006148fb602083613e71565b9150614906826148c5565b602082019050919050565b6000602082019050818103600083015261492a816148ee565b9050919050565b7f436f75706c654e46543a20416c7265616479206d696e74656400000000000000600082015250565b6000614967601983613e71565b915061497282614931565b602082019050919050565b600060208201905081810360008301526149968161495a565b9050919050565b7f436f75706c654e46543a204e6f7420617574686f72697a656400000000000000600082015250565b60006149d3601983613e71565b91506149de8261499d565b602082019050919050565b60006020820190508181036000830152614a02816149c6565b9050919050565b7f436f75706c654e46543a2043616c6c657220697320626c61636b6c6973746564600082015250565b6000614a3f602083613e71565b9150614a4a82614a09565b602082019050919050565b60006020820190508181036000830152614a6e81614a32565b9050919050565b7f4e487b7100000000000000000000000000000000000000000000000000000000600052601160045260246000fd5b6000614aaf82613f18565b9150614aba83613f18565b9250828201905080821115614ad257614ad1614a75565b5b92915050565b7f436f75706c654e46543a20526571756573742065787069726564000000000000600082015250565b6000614b0e601a83613e71565b9150614b1982614ad8565b602082019050919050565b60006020820190508181036000830152614b3d81614b01565b9050919050565b7f436f75706c654e46543a20416c726561647920636f6e73656e746564206f722060008201527f6e6f7420617574686f72697a6564000000000000000000000000000000000000602082015250565b6000614ba0602e83613e71565b9150614bab82614b44565b604082019050919050565b60006020820190508181036000830152614bcf81614b93565b9050919050565b7f436f75706c654e46543a2043616e6e6f7420626c61636b6c697374207a65726f60008201527f2061646472657373000000000000000000000000000000000000000000000000602082015250565b6000614c32602883613e71565b9150614c3d82614bd6565b604082019050919050565b60006020820190508181036000830152614c6181614c25565b9050919050565b7f436f75706c654e46543a2043616e6e6f7420626c61636b6c697374206f776e6560008201527f7200000000000000000000000000000000000000000000000000000000000000602082015250565b6000614cc4602183613e71565b9150614ccf82614c68565b604082019050919050565b60006020820190508181036000830152614cf381614cb7565b9050919050565b7f436f75706c654e46543a20506172746e6572732063616e6e6f74206265207a6560008201527f726f206164647265737300000000000000000000000000000000000000000000602082015250565b6000614d56602a83613e71565b9150614d6182614cfa565b604082019050919050565b60006020820190508181036000830152614d8581614d49565b9050919050565b7f436f75706c654e46543a20506172746e657273206d757374206265206469666660008201527f6572656e74000000000000000000000000000000000000000000000000000000602082015250565b6000614de8602583613e71565b9150614df382614d8c565b604082019050919050565b60006020820190508181036000830152614e1781614ddb565b9050919050565b7f436f75706c654e46543a2043616c6c6572206d757374206265206f6e65206f6660008201527f2074686520706172746e65727300000000000000000000000000000000000000602082015250565b6000614e7a602d83613e71565b9150614e8582614e1e565b604082019050919050565b60006020820190508181036000830152614ea981614e6d565b9050919050565b7f436f75706c654e46543a204f6e65206f7220626f746820706172746e6572732060008201527f61726520626c61636b6c69737465640000000000000000000000000000000000602082015250565b6000614f0c602f83613e71565b9150614f1782614eb0565b604082019050919050565b60006020820190508181036000830152614f3b81614eff565b9050919050565b7f436f75706c654e46543a20546f6b656e205552492063616e6e6f74206265206560008201527f6d70747900000000000000000000000000000000000000000000000000000000602082015250565b6000614f9e602483613e71565b9150614fa982614f42565b604082019050919050565b60006020820190508181036000830152614fcd81614f91565b9050919050565b60008160601b9050919050565b6000614fec82614fd4565b9050919050565b6000614ffe82614fe1565b9050919050565b61501661501182613f9b565b614ff3565b82525050565b60006150288285615005565b6014820191506150388284615005565b6014820191508190509392505050565b7f436f75706c654e46543a20436f75706c6520616c72656164792068617320616e60008201527f204e465400000000000000000000000000000000000000000000000000000000602082015250565b60006150a4602483613e71565b91506150af82615048565b604082019050919050565b600060208201905081810360008301526150d381615097565b9050919050565b60008190508160005260206000209050919050565b60006020601f8301049050919050565b600082821b905092915050565b60006008830261513c7fffffffffffffffffffffffffffffffffffffffffffffffffffffffffffffffff826150ff565b61514686836150ff565b95508019841693508086168417925050509392505050565b6000819050919050565b600061518361517e61517984613f18565b61515e565b613f18565b9050919050565b6000819050919050565b61519d83615168565b6151b16151a98261518a565b84845461510c565b825550505050565b600090565b6151c66151b9565b6151d1818484615194565b505050565b5b818110156151f5576151ea6000826151be565b6001810190506151d7565b5050565b601f82111561523a5761520b816150da565b615214846150ef565b81016020851015615223578190505b61523761522f856150ef565b8301826151d6565b50505b505050565b600082821c905092915050565b600061525d6000198460080261523f565b1980831691505092915050565b6000615276838361524c565b9150826002028217905092915050565b61528f82613e66565b67ffffffffffffffff8111156152a8576152a761415c565b5b6152b28254614770565b6152bd8282856151f9565b600060209050601f8311600181146152f057600084156152de578287015190505b6152e8858261526a565b865550615350565b601f1984166152fe866150da565b60005b8281101561532657848901518255600182019150602085019450602081019050615301565b86831015615343578489015161533f601f89168261524c565b8355505b6001600288020188555050505b505050505050565b600060408201905061536d6000830185613fad565b61537a60208301846140af565b9392505050565b7f4552433732313a2063616c6c6572206973206e6f7420746f6b656e206f776e6560008201527f72206f7220617070726f76656400000000000000000000000000000000000000602082015250565b60006153dd602d83613e71565b91506153e882615381565b604082019050919050565b6000602082019050818103600083015261540c816153d0565b9050919050565b7f4552433732313a20696e76616c696420746f6b656e2049440000000000000000600082015250565b6000615449601883613e71565b915061545482615413565b602082019050919050565b600060208201905081810360008301526154788161543c565b9050919050565b7f4552433732313a2061646472657373207a65726f206973206e6f74206120766160008201527f6c6964206f776e65720000000000000000000000000000000000000000000000602082015250565b60006154db602983613e71565b91506154e68261547f565b604082019050919050565b6000602082019050818103600083015261550a816154ce565b9050919050565b7f436f75706c654e46543a20436f7374206d75737420626520677265617465722060008201527f7468616e20300000000000000000000000000000000000000000000000000000602082015250565b600061556d602683613e71565b915061557882615511565b604082019050919050565b6000602082019050818103600083015261559c81615560565b9050919050565b7f4e487b7100000000000000000000000000000000000000000000000000000000600052603260045260246000fd5b7f4578706972656400000000000000000000000000000000000000000000000000600082015250565b6000615608600783613e71565b9150615613826155d2565b602082019050919050565b60006020820190508181036000830152615637816155fb565b9050919050565b7f436f75706c654e46543a204e6f7420617574686f72697a656420746f2063616e60008201527f63656c0000000000000000000000000000000000000000000000000000000000602082015250565b600061569a602383613e71565b91506156a58261563e565b604082019050919050565b600060208201905081810360008301526156c98161568d565b9050919050565b7f4f776e61626c653a206e6577206f776e657220697320746865207a65726f206160008201527f6464726573730000000000000000000000000000000000000000000000000000602082015250565b600061572c602683613e71565b9150615737826156d0565b604082019050919050565b6000602082019050818103600083015261575b8161571f565b9050919050565b7f5265656e7472616e637947756172643a207265656e7472616e742063616c6c00600082015250565b6000615798601f83613e71565b91506157a382615762565b602082019050919050565b600060208201905081810360008301526157c78161578b565b9050919050565b7f5061757361626c653a2070617573656400000000000000000000000000000000600082015250565b6000615804601083613e71565b915061580f826157ce565b602082019050919050565b60006020820190508181036000830152615833816157f7565b9050919050565b7f436f75706c654e46543a20496e73756666696369656e7420434d50582062616c60008201527f616e636500000000000000000000000000000000000000000000000000000000602082015250565b6000615896602483613e71565b91506158a18261583a565b604082019050919050565b600060208201905081810360008301526158c581615889565b9050919050565b600081546158d981614770565b6158e38186613e71565b945060018216600081146158fe576001811461591457615947565b60ff198316865281151560200286019350615947565b61591d856150da565b60005b8381101561593f57815481890152600182019150602081019050615920565b808801955050505b50505092915050565b60006040820190506159656000830185613fad565b818103602083015261597781846158cc565b90509392505050565b7f4f776e61626c653a2063616c6c6572206973206e6f7420746865206f776e6572600082015250565b60006159b6602083613e71565b91506159c182615980565b602082019050919050565b600060208201905081810360008301526159e5816159a9565b9050919050565b7f4552433732313a207472616e736665722066726f6d20696e636f72726563742060008201527f6f776e6572000000000000000000000000000000000000000000000000000000602082015250565b6000615a48602583613e71565b9150615a53826159ec565b604082019050919050565b60006020820190508181036000830152615a7781615a3b565b9050919050565b7f4552433732313a207472616e7366657220746f20746865207a65726f2061646460008201527f7265737300000000000000000000000000000000000000000000000000000000602082015250565b6000615ada602483613e71565b9150615ae582615a7e565b604082019050919050565b60006020820190508181036000830152615b0981615acd565b9050919050565b6000615b1b82613f18565b9150615b2683613f18565b9250828203905081811115615b3e57615b3d614a75565b5b92915050565b7f4e487b7100000000000000000000000000000000000000000000000000000000600052603160045260246000fd5b7f4552433732313a20617070726f766520746f2063616c6c657200000000000000600082015250565b6000615ba9601983613e71565b9150615bb482615b73565b602082019050919050565b60006020820190508181036000830152615bd881615b9c565b9050919050565b7f4552433732313a207472616e7366657220746f206e6f6e20455243373231526560008201527f63656976657220696d706c656d656e7465720000000000000000000000000000602082015250565b6000615c3b603283613e71565b9150615c4682615bdf565b604082019050919050565b60006020820190508181036000830152615c6a81615c2e565b9050919050565b600081905092915050565b6000615c8782613e66565b615c918185615c71565b9350615ca1818560208601613e82565b80840191505092915050565b6000615cb98285615c7c565b9150615cc58284615c7c565b91508190509392505050565b7f45524337323155524953746f726167653a2055524920736574206f66206e6f6e60008201527f6578697374656e7420746f6b656e000000000000000000000000000000000000602082015250565b6000615d2d602e83613e71565b9150615d3882615cd1565b604082019050919050565b60006020820190508181036000830152615d5c81615d20565b9050919050565b7f5061757361626c653a206e6f7420706175736564000000000000000000000000600082015250565b6000615d99601483613e71565b9150615da482615d63565b602082019050919050565b60006020820190508181036000830152615dc881615d8c565b9050919050565b600081519050919050565b600082825260208201905092915050565b6000615df682615dcf565b615e008185615dda565b9350615e10818560208601613e82565b615e1981613eac565b840191505092915050565b6000608082019050615e396000830187613fad565b615e466020830186613fad565b615e5360408301856140af565b8181036060830152615e658184615deb565b905095945050505050565b600081519050615e7f81613dd7565b92915050565b600060208284031215615e9b57615e9a613da1565b5b6000615ea984828501615e70565b91505092915050565b7f4e487b7100000000000000000000000000000000000000000000000000000000600052601260045260246000fd5b7f4552433732313a206d696e7420746f20746865207a65726f2061646472657373600082015250565b6000615f17602083613e71565b9150615f2282615ee1565b602082019050919050565b60006020820190508181036000830152615f4681615f0a565b9050919050565b7f4552433732313a20746f6b656e20616c7265616479206d696e74656400000000600082015250565b6000615f83601c83613e71565b9150615f8e82615f4d565b602082019050919050565b60006020820190508181036000830152615fb281615f76565b905091905056fea2646970667358221220407958a5dc82a7b8e91943ac6e4d8a7fb8e81dc7aae73838f07d744f6dac5eef64736f6c63430008190033",
  "linkReferences": {},
  "deployedLinkReferences": {}
}