{
  "_format": "hh-sol-artifact-1",
  "contractName": "CMPX",
  "sourceName": "contracts/CMPX.sol",
  "abi": [
    {
      "inputs": [],
      "stateMutability": "nonpayable",
      "type": "constructor"
    },
    {
      "anonymous": false,
      "inputs": [
        {
          "indexed": true,
          "internalType": "address",
          "name": "account",
          "type": "address"
        },
        {
          "indexed": false,
          "internalType": "bool",
          "name": "status",
          "type": "bool"
        }
      ],
      "name": "AddressBlacklisted",
      "type": "event"
    },
    {
      "anonymous": false,
      "inputs": [
        {
          "indexed": true,
          "internalType": "address",
          "name": "owner",
          "type": "address"
        },
        {
          "indexed": true,
          "internalType": "address",
          "name": "spender",
          "type": "address"
        },
        {
          "indexed": false,
          "internalType": "uint256",
          "name": "value",
          "type": "uint256"
        }
      ],
      "name": "Approval",
      "type": "event"
    },
    {
      "anonymous": false,
      "inputs": [
        {
          "indexed": true,
          "internalType": "address",
          "name": "user",
          "type": "address"
        },
        {
          "indexed": false,
          "internalType": "uint256",
          "name": "amount",
          "type": "uint256"
        },
        {
          "indexed": false,
          "internalType": "uint256",
          "name": "day",
          "type": "uint256"
        }
      ],
      "name": "DailyTokensClaimed",
      "type": "event"
    },
    {
      "anonymous": false,
      "inputs": [
        {
          "indexed": false,
          "internalType": "uint8",
          "name": "version",
          "type": "uint8"
        }
      ],
      "name": "Initialized",
      "type": "event"
    },
    {
      "anonymous": false,
      "inputs": [
        {
          "indexed": true,
          "internalType": "address",
          "name": "minter",
          "type": "address"
        }
      ],
      "name": "MinterAdded",
      "type": "event"
    },
    {
      "anonymous": false,
      "inputs": [
        {
          "indexed": true,
          "internalType": "address",
          "name": "minter",
          "type": "address"
        }
      ],
      "name": "MinterRemoved",
      "type": "event"
    },
    {
      "anonymous": false,
      "inputs": [
        {
          "indexed": true,
          "internalType": "address",
          "name": "previousOwner",
          "type": "address"
        },
        {
          "indexed": true,
          "internalType": "address",
          "name": "newOwner",
          "type": "address"
        }
      ],
      "name": "OwnershipTransferred",
      "type": "event"
    },
    {
      "anonymous": false,
      "inputs": [
        {
          "indexed": false,
          "internalType": "address",
          "name": "account",
          "type": "address"
        }
      ],
      "name": "Paused",
      "type": "event"
    },
    {
      "anonymous": false,
      "inputs": [
        {
          "indexed": false,
          "internalType": "bool",
          "name": "isTestnet",
          "type": "bool"
        }
      ],
      "name": "TestnetModeToggled",
      "type": "event"
    },
    {
      "anonymous": false,
      "inputs": [
        {
          "indexed": true,
          "internalType": "address",
          "name": "user",
          "type": "address"
        },
        {
          "indexed": false,
          "internalType": "uint256",
          "name": "amount",
          "type": "uint256"
        }
      ],
      "name": "TestnetTokensClaimed",
      "type": "event"
    },
    {
      "anonymous": false,
      "inputs": [
        {
          "indexed": true,
          "internalType": "address",
          "name": "to",
          "type": "address"
        },
        {
          "indexed": false,
          "internalType": "uint256",
          "name": "amount",
          "type": "uint256"
        },
        {
          "indexed": false,
          "internalType": "string",
          "name": "reason",
          "type": "string"
        }
      ],
      "name": "TokensMinted",
      "type": "event"
    },
    {
      "anonymous": false,
      "inputs": [
        {
          "indexed": true,
          "internalType": "address",
          "name": "from",
          "type": "address"
        },
        {
          "indexed": true,
          "internalType": "address",
          "name": "to",
          "type": "address"
        },
        {
          "indexed": false,
          "internalType": "uint256",
          "name": "value",
          "type": "uint256"
        }
      ],
      "name": "Transfer",
      "type": "event"
    },
    {
      "anonymous": false,
      "inputs": [
        {
          "indexed": false,
          "internalType": "address",
          "name": "account",
          "type": "address"
        }
      ],
      "name": "Unpaused",
      "type": "event"
    },
    {
      "inputs": [],
      "name": "DAILY_CLAIM_LIMIT",
      "outputs": [
        {
          "internalType": "uint256",
          "name": "",
          "type": "uint256"
        }
      ],
      "stateMutability": "view",
      "type": "function"
    },
    {
      "inputs": [],
      "name": "MAX_SUPPLY",
      "outputs": [
        {
          "internalType": "uint256",
          "name": "",
          "type": "uint256"
        }
      ],
      "stateMutability": "view",
      "type": "function"
    },
    {
      "inputs": [],
      "name": "TESTNET_FREE_LIMIT",
      "outputs": [
        {
          "internalType": "uint256",
          "name": "",
          "type": "uint256"
        }
      ],
      "stateMutability": "view",
      "type": "function"
    },
    {
      "inputs": [],
      "name": "TESTNET_POOL",
      "outputs": [
        {
          "internalType": "uint256",
          "name": "",
          "type": "uint256"
        }
      ],
      "stateMutability": "view",
      "type": "function"
    },
    {
      "inputs": [
        {
          "internalType": "address",
          "name": "minter",
          "type": "address"
        }
      ],
      "name": "addMinter",
      "outputs": [],
      "stateMutability": "nonpayable",
      "type": "function"
    },
    {
      "inputs": [
        {
          "internalType": "address",
          "name": "owner",
          "type": "address"
        },
        {
          "internalType": "address",
          "name": "spender",
          "type": "address"
        }
      ],
      "name": "allowance",
      "outputs": [
        {
          "internalType": "uint256",
          "name": "",
          "type": "uint256"
        }
      ],
      "stateMutability": "view",
      "type": "function"
    },
    {
      "inputs": [
        {
          "internalType": "address",
          "name": "spender",
          "type": "address"
        },
        {
          "internalType": "uint256",
          "name": "amount",
          "type": "uint256"
        }
      ],
      "name": "approve",
      "outputs": [
        {
          "internalType": "bool",
          "name": "",
          "type": "bool"
        }
      ],
      "stateMutability": "nonpayable",
      "type": "function"
    },
    {
      "inputs": [
        {
          "internalType": "address",
          "name": "account",
          "type": "address"
        }
      ],
      "name": "balanceOf",
      "outputs": [
        {
          "internalType": "uint256",
          "name": "",
          "type": "uint256"
        }
      ],
      "stateMutability": "view",
      "type": "function"
    },
    {
      "inputs": [
        {
          "internalType": "address",
          "name": "",
          "type": "address"
        }
      ],
      "name": "blacklisted",
      "outputs": [
        {
          "internalType": "bool",
          "name": "",
          "type": "bool"
        }
      ],
      "stateMutability": "view",
      "type": "function"
    },
    {
      "inputs": [
        {
          "internalType": "uint256",
          "name": "amount",
          "type": "uint256"
        }
      ],
      "name": "claimDailyTokens",
      "outputs": [],
      "stateMutability": "nonpayable",
      "type": "function"
    },
    {
      "inputs": [
        {
          "internalType": "uint256",
          "name": "amount",
          "type": "uint256"
        }
      ],
      "name": "claimTestnetTokens",
      "outputs": [],
      "stateMutability": "nonpayable",
      "type": "function"
    },
    {
      "inputs": [
        {
          "internalType": "address",
          "name": "",
          "type": "address"
        }
      ],
      "name": "dailyTokensClaimed",
      "outputs": [
        {
          "internalType": "uint256",
          "name": "",
          "type": "uint256"
        }
      ],
      "stateMutability": "view",
      "type": "function"
    },
    {
      "inputs": [],
      "name": "decimals",
      "outputs": [
        {
          "internalType": "uint8",
          "name": "",
          "type": "uint8"
        }
      ],
      "stateMutability": "view",
      "type": "function"
    },
    {
      "inputs": [
        {
          "internalType": "address",
          "name": "spender",
          "type": "address"
        },
        {
          "internalType": "uint256",
          "name": "subtractedValue",
          "type": "uint256"
        }
      ],
      "name": "decreaseAllowance",
      "outputs": [
        {
          "internalType": "bool",
          "name": "",
          "type": "bool"
        }
      ],
      "stateMutability": "nonpayable",
      "type": "function"
    },
    {
      "inputs": [
        {
          "internalType": "address",
          "name": "user",
          "type": "address"
        }
      ],
      "name": "getTestnetInfo",
      "outputs": [
        {
          "internalType": "uint256",
          "name": "claimed",
          "type": "uint256"
        },
        {
          "internalType": "uint256",
          "name": "remaining",
          "type": "uint256"
        },
        {
          "internalType": "uint256",
          "name": "dailyClaimed",
          "type": "uint256"
        },
        {
          "internalType": "uint256",
          "name": "dailyRemaining",
          "type": "uint256"
        },
        {
          "internalType": "uint256",
          "name": "poolRemaining",
          "type": "uint256"
        }
      ],
      "stateMutability": "view",
      "type": "function"
    },
    {
      "inputs": [],
      "name": "getTestnetStats",
      "outputs": [
        {
          "internalType": "bool",
          "name": "isTestnetActive",
          "type": "bool"
        },
        {
          "internalType": "uint256",
          "name": "totalDistributed",
          "type": "uint256"
        },
        {
          "internalType": "uint256",
          "name": "poolRemaining",
          "type": "uint256"
        },
        {
          "internalType": "uint256",
          "name": "freeLimit",
          "type": "uint256"
        },
        {
          "internalType": "uint256",
          "name": "dailyLimit",
          "type": "uint256"
        }
      ],
      "stateMutability": "view",
      "type": "function"
    },
    {
      "inputs": [
        {
          "internalType": "address",
          "name": "spender",
          "type": "address"
        },
        {
          "internalType": "uint256",
          "name": "addedValue",
          "type": "uint256"
        }
      ],
      "name": "increaseAllowance",
      "outputs": [
        {
          "internalType": "bool",
          "name": "",
          "type": "bool"
        }
      ],
      "stateMutability": "nonpayable",
      "type": "function"
    },
    {
      "inputs": [
        {
          "internalType": "address",
          "name": "initialOwner",
          "type": "address"
        },
        {
          "internalType": "bool",
          "name": "_isTestnet",
          "type": "bool"
        }
      ],
      "name": "initialize",
      "outputs": [],
      "stateMutability": "nonpayable",
      "type": "function"
    },
    {
      "inputs": [
        {
          "internalType": "address",
          "name": "account",
          "type": "address"
        }
      ],
      "name": "isBlacklisted",
      "outputs": [
        {
          "internalType": "bool",
          "name": "",
          "type": "bool"
        }
      ],
      "stateMutability": "view",
      "type": "function"
    },
    {
      "inputs": [
        {
          "internalType": "address",
          "name": "account",
          "type": "address"
        }
      ],
      "name": "isMinter",
      "outputs": [
        {
          "internalType": "bool",
          "name": "",
          "type": "bool"
        }
      ],
      "stateMutability": "view",
      "type": "function"
    },
    {
      "inputs": [],
      "name": "isTestnet",
      "outputs": [
        {
          "internalType": "bool",
          "name": "",
          "type": "bool"
        }
      ],
      "stateMutability": "view",
      "type": "function"
    },
    {
      "inputs": [
        {
          "internalType": "address",
          "name": "",
          "type": "address"
        }
      ],
      "name": "lastDailyClaim",
      "outputs": [
        {
          "internalType": "uint256",
          "name": "",
          "type": "uint256"
        }
      ],
      "stateMutability": "view",
      "type": "function"
    },
    {
      "inputs": [
        {
          "internalType": "address",
          "name": "to",
          "type": "address"
        },
        {
          "internalType": "uint256",
          "name": "amount",
          "type": "uint256"
        },
        {
          "internalType": "string",
          "name": "reason",
          "type": "string"
        }
      ],
      "name": "mint",
      "outputs": [],
      "stateMutability": "nonpayable",
      "type": "function"
    },
    {
      "inputs": [
        {
          "internalType": "address",
          "name": "user",
          "type": "address"
        },
        {
          "internalType": "uint256",
          "name": "tpAmount",
          "type": "uint256"
        }
      ],
      "name": "mintForPremium",
      "outputs": [],
      "stateMutability": "nonpayable",
      "type": "function"
    },
    {
      "inputs": [
        {
          "internalType": "address",
          "name": "to",
          "type": "address"
        },
        {
          "internalType": "uint256",
          "name": "amount",
          "type": "uint256"
        }
      ],
      "name": "mintTestnetTokens",
      "outputs": [],
      "stateMutability": "nonpayable",
      "type": "function"
    },
    {
      "inputs": [
        {
          "internalType": "address",
          "name": "",
          "type": "address"
        }
      ],
      "name": "minters",
      "outputs": [
        {
          "internalType": "bool",
          "name": "",
          "type": "bool"
        }
      ],
      "stateMutability": "view",
      "type": "function"
    },
    {
      "inputs": [],
      "name": "name",
      "outputs": [
        {
          "internalType": "string",
          "name": "",
          "type": "string"
        }
      ],
      "stateMutability": "view",
      "type": "function"
    },
    {
      "inputs": [],
      "name": "owner",
      "outputs": [
        {
          "internalType": "address",
          "name": "",
          "type": "address"
        }
      ],
      "stateMutability": "view",
      "type": "function"
    },
    {
      "inputs": [],
      "name": "pause",
      "outputs": [],
      "stateMutability": "nonpayable",
      "type": "function"
    },
    {
      "inputs": [],
      "name": "paused",
      "outputs": [
        {
          "internalType": "bool",
          "name": "",
          "type": "bool"
        }
      ],
      "stateMutability": "view",
      "type": "function"
    },
    {
      "inputs": [],
      "name": "remainingSupply",
      "outputs": [
        {
          "internalType": "uint256",
          "name": "",
          "type": "uint256"
        }
      ],
      "stateMutability": "view",
      "type": "function"
    },
    {
      "inputs": [
        {
          "internalType": "address",
          "name": "minter",
          "type": "address"
        }
      ],
      "name": "removeMinter",
      "outputs": [],
      "stateMutability": "nonpayable",
      "type": "function"
    },
    {
      "inputs": [],
      "name": "renounceOwnership",
      "outputs": [],
      "stateMutability": "nonpayable",
      "type": "function"
    },
    {
      "inputs": [
        {
          "internalType": "address",
          "name": "account",
          "type": "address"
        },
        {
          "internalType": "bool",
          "name": "status",
          "type": "bool"
        }
      ],
      "name": "setBlacklist",
      "outputs": [],
      "stateMutability": "nonpayable",
      "type": "function"
    },
    {
      "inputs": [
        {
          "internalType": "bool",
          "name": "_isTestnet",
          "type": "bool"
        }
      ],
      "name": "setTestnetMode",
      "outputs": [],
      "stateMutability": "nonpayable",
      "type": "function"
    },
    {
      "inputs": [],
      "name": "symbol",
      "outputs": [
        {
          "internalType": "string",
          "name": "",
          "type": "string"
        }
      ],
      "stateMutability": "view",
      "type": "function"
    },
    {
      "inputs": [
        {
          "internalType": "address",
          "name": "",
          "type": "address"
        }
      ],
      "name": "testnetTokensClaimed",
      "outputs": [
        {
          "internalType": "uint256",
          "name": "",
          "type": "uint256"
        }
      ],
      "stateMutability": "view",
      "type": "function"
    },
    {
      "inputs": [],
      "name": "testnetTokensDistributed",
      "outputs": [
        {
          "internalType": "uint256",
          "name": "",
          "type": "uint256"
        }
      ],
      "stateMutability": "view",
      "type": "function"
    },
    {
      "inputs": [],
      "name": "totalMinted",
      "outputs": [
        {
          "internalType": "uint256",
          "name": "",
          "type": "uint256"
        }
      ],
      "stateMutability": "view",
      "type": "function"
    },
    {
      "inputs": [],
      "name": "totalSupply",
      "outputs": [
        {
          "internalType": "uint256",
          "name": "",
          "type": "uint256"
        }
      ],
      "stateMutability": "view",
      "type": "function"
    },
    {
      "inputs": [
        {
          "internalType": "address",
          "name": "to",
          "type": "address"
        },
        {
          "internalType": "uint256",
          "name": "amount",
          "type": "uint256"
        }
      ],
      "name": "transfer",
      "outputs": [
        {
          "internalType": "bool",
          "name": "",
          "type": "bool"
        }
      ],
      "stateMutability": "nonpayable",
      "type": "function"
    },
    {
      "inputs": [
        {
          "internalType": "address",
          "name": "from",
          "type": "address"
        },
        {
          "internalType": "address",
          "name": "to",
          "type": "address"
        },
        {
          "internalType": "uint256",
          "name": "amount",
          "type": "uint256"
        }
      ],
      "name": "transferFrom",
      "outputs": [
        {
          "internalType": "bool",
          "name": "",
          "type": "bool"
        }
      ],
      "stateMutability": "nonpayable",
      "type": "function"
    },
    {
      "inputs": [
        {
          "internalType": "address",
          "name": "newOwner",
          "type": "address"
        }
      ],
      "name": "transferOwnership",
      "outputs": [],
      "stateMutability": "nonpayable",
      "type": "function"
    },
    {
      "inputs": [],
      "name": "unpause",
      "outputs": [],
      "stateMutability": "nonpayable",
      "type": "function"
    }
  ],
  "bytecode": "0x608060405234801561001057600080fd5b5061001f61002460201b60201c565b6101be565b600060019054906101000a900460ff1615610074576040517f08c379a000000000000000000000000000000000000000000000000000000000815260040161006b90610167565b60405180910390fd5b60ff801660008054906101000a900460ff1660ff16146100e25760ff6000806101000a81548160ff021916908360ff1602179055507f7f26b83ff96e1f2b6a682f133852f6798a09c465da95921460cefb384740249860ff6040516100d991906101a3565b60405180910390a15b565b600082825260208201905092915050565b7f496e697469616c697a61626c653a20636f6e747261637420697320696e69746960008201527f616c697a696e6700000000000000000000000000000000000000000000000000602082015250565b60006101516027836100e4565b915061015c826100f5565b604082019050919050565b6000602082019050818103600083015261018081610144565b9050919050565b600060ff82169050919050565b61019d81610187565b82525050565b60006020820190506101b86000830184610194565b92915050565b615917806101cd6000396000f3fe608060405234801561001057600080fd5b50600436106102745760003560e01c80638da5cb5b11610151578063d3fc9864116100c3578063ec28dfe311610087578063ec28dfe31461077b578063ec30b8a514610797578063eff83e6e146107b9578063f2fde38b146107e9578063f46eccc414610805578063fe575a871461083557610274565b8063d3fc9864146106b1578063d53aaee3146106cd578063da0239a6146106fd578063dbac26e91461071b578063dd62ed3e1461074b57610274565b8063a08341d411610115578063a08341d4146105b3578063a2309ff8146105cf578063a457c2d7146105ed578063a9059cbb1461061d578063aa271e1a1461064d578063acf454e81461067d57610274565b80638da5cb5b1461050d57806392108c861461052b578063923bccbe1461054957806395d89b4114610579578063983b2d561461059757610274565b806339498113116101ea5780635fdebe4a116101ae5780635fdebe4a146104715780636e0578ce1461048d57806370a08231146104ab578063715018a6146104db57806371f8ef27146104e55780638456cb591461050357610274565b806339498113146103df57806339509351146103fd5780633f4ba83a1461042d578063400ada75146104375780635c975abb1461045357610274565b806323b872dd1161023c57806323b872dd1461031d5780632f09c1461461034d5780633092afd514610369578063313ce5671461038557806332cb6b0c146103a357806336903263146103c157610274565b806304d721bf1461027957806306fdde0314610295578063095ea7b3146102b3578063153b0d1e146102e357806318160ddd146102ff575b600080fd5b610293600480360381019061028e91906138e2565b610865565b005b61029d610b15565b6040516102aa91906139b2565b60405180910390f35b6102cd60048036038101906102c891906138e2565b610ba7565b6040516102da91906139ef565b60405180910390f35b6102fd60048036038101906102f89190613a36565b610bca565b005b610307610d5f565b6040516103149190613a85565b60405180910390f35b61033760048036038101906103329190613aa0565b610d69565b60405161034491906139ef565b60405180910390f35b61036760048036038101906103629190613af3565b610f20565b005b610383600480360381019061037e9190613b20565b610f7c565b005b61038d6110ae565b60405161039a9190613b69565b60405180910390f35b6103ab6110b7565b6040516103b89190613a85565b60405180910390f35b6103c96110c7565b6040516103d69190613a85565b60405180910390f35b6103e76110cd565b6040516103f49190613a85565b60405180910390f35b610417600480360381019061041291906138e2565b6110da565b60405161042491906139ef565b60405180910390f35b610435611111565b005b610451600480360381019061044c9190613a36565b611123565b005b61045b611439565b60405161046891906139ef565b60405180910390f35b61048b600480360381019061048691906138e2565b611450565b005b610495611694565b6040516104a29190613a85565b60405180910390f35b6104c560048036038101906104c09190613b20565b6116a3565b6040516104d29190613a85565b60405180910390f35b6104e36116ec565b005b6104ed611700565b6040516104fa9190613a85565b60405180910390f35b61050b61171b565b005b61051561172d565b6040516105229190613b93565b60405180910390f35b610533611757565b60405161054091906139ef565b60405180910390f35b610563600480360381019061055e9190613b20565b61176a565b6040516105709190613a85565b60405180910390f35b610581611783565b60405161058e91906139b2565b60405180910390f35b6105b160048036038101906105ac9190613b20565b611815565b005b6105cd60048036038101906105c89190613bae565b6119b7565b005b6105d7611e6b565b6040516105e49190613a85565b60405180910390f35b610607600480360381019061060291906138e2565b611e71565b60405161061491906139ef565b60405180910390f35b610637600480360381019061063291906138e2565b611ee8565b60405161064491906139ef565b60405180910390f35b61066760048036038101906106629190613b20565b61209d565b60405161067491906139ef565b60405180910390f35b61069760048036038101906106929190613b20565b6120f3565b6040516106a8959493929190613bdb565b60405180910390f35b6106cb60048036038101906106c69190613c93565b6122c1565b005b6106e760048036038101906106e29190613b20565b612575565b6040516106f49190613a85565b60405180910390f35b61070561258e565b6040516107129190613a85565b60405180910390f35b61073560048036038101906107309190613b20565b6125af565b60405161074291906139ef565b60405180910390f35b61076560048036038101906107609190613d07565b6125cf565b6040516107729190613a85565b60405180910390f35b61079560048036038101906107909190613bae565b612656565b005b61079f612a0c565b6040516107b0959493929190613d47565b60405180910390f35b6107d360048036038101906107ce9190613b20565b612a8f565b6040516107e09190613a85565b60405180910390f35b61080360048036038101906107fe9190613b20565b612aa8565b005b61081f600480360381019061081a9190613b20565b612b2b565b60405161082c91906139ef565b60405180910390f35b61084f600480360381019061084a9190613b20565b612b4b565b60405161085c91906139ef565b60405180910390f35b61086d612ba1565b610875612c1f565b61087d612c6e565b60fe60009054906101000a900460ff166108cc576040517f08c379a00000000000000000000000000000000000000000000000000000000081526004016108c390613de6565b60405180910390fd5b600073ffffffffffffffffffffffffffffffffffffffff168273ffffffffffffffffffffffffffffffffffffffff160361093b576040517f08c379a000000000000000000000000000000000000000000000000000000000815260040161093290613e78565b60405180910390fd5b60fb60008373ffffffffffffffffffffffffffffffffffffffff1673ffffffffffffffffffffffffffffffffffffffff16815260200190815260200160002060009054906101000a900460ff16156109c8576040517f08c379a00000000000000000000000000000000000000000000000000000000081526004016109bf90613f0a565b60405180910390fd5b6acecb8f27f4200f3a0000008160ff546109e29190613f59565b1115610a23576040517f08c379a0000000000000000000000000000000000000000000000000000000008152600401610a1a90613fd9565b60405180910390fd5b6b0409f9cbc7c4a04c220000008160fd54610a3e9190613f59565b1115610a7f576040517f08c379a0000000000000000000000000000000000000000000000000000000008152600401610a7690614045565b60405180910390fd5b8060ff6000828254610a919190613f59565b925050819055508060fd6000828254610aaa9190613f59565b92505081905550610abb8282612cb8565b8173ffffffffffffffffffffffffffffffffffffffff167f9d89e36eadf856db0ad9ffb5a569e07f95634dddd9501141ecf04820484ad0dc82604051610b0191906140b1565b60405180910390a2610b11612e0f565b5050565b606060368054610b249061410e565b80601f0160208091040260200160405190810160405280929190818152602001828054610b509061410e565b8015610b9d5780601f10610b7257610100808354040283529160200191610b9d565b820191906000526020600020905b815481529060010190602001808311610b8057829003601f168201915b5050505050905090565b600080610bb2612e19565b9050610bbf818585612e21565b600191505092915050565b610bd2612ba1565b600073ffffffffffffffffffffffffffffffffffffffff168273ffffffffffffffffffffffffffffffffffffffff1603610c41576040517f08c379a0000000000000000000000000000000000000000000000000000000008152600401610c38906141b1565b60405180910390fd5b610c4961172d565b73ffffffffffffffffffffffffffffffffffffffff168273ffffffffffffffffffffffffffffffffffffffff1603610cb6576040517f08c379a0000000000000000000000000000000000000000000000000000000008152600401610cad9061421d565b60405180910390fd5b8060fb60008473ffffffffffffffffffffffffffffffffffffffff1673ffffffffffffffffffffffffffffffffffffffff16815260200190815260200160002060006101000a81548160ff0219169083151502179055508173ffffffffffffffffffffffffffffffffffffffff167f97b7af35c8c05eca90f543eb78b16fdf2664d3e6c9a907286f310647d9813b7182604051610d5391906139ef565b60405180910390a25050565b6000603554905090565b6000610d73612c1f565b610d7b612c6e565b60fb60008573ffffffffffffffffffffffffffffffffffffffff1673ffffffffffffffffffffffffffffffffffffffff16815260200190815260200160002060009054906101000a900460ff1615610e08576040517f08c379a0000000000000000000000000000000000000000000000000000000008152600401610dff906142af565b60405180910390fd5b60fb60008473ffffffffffffffffffffffffffffffffffffffff1673ffffffffffffffffffffffffffffffffffffffff16815260200190815260200160002060009054906101000a900460ff1615610e95576040517f08c379a0000000000000000000000000000000000000000000000000000000008152600401610e8c9061431b565b60405180910390fd5b600073ffffffffffffffffffffffffffffffffffffffff168373ffffffffffffffffffffffffffffffffffffffff1603610f04576040517f08c379a0000000000000000000000000000000000000000000000000000000008152600401610efb90614387565b60405180910390fd5b610f0f848484612fea565b9050610f19612e0f565b9392505050565b610f28612ba1565b8060fe60006101000a81548160ff0219169083151502179055507f3ec229932e1d52f9ad94e43ee98f7609e49187cff15de13dd956b47651d1c58481604051610f7191906139ef565b60405180910390a150565b610f84612ba1565b60fc60008273ffffffffffffffffffffffffffffffffffffffff1673ffffffffffffffffffffffffffffffffffffffff16815260200190815260200160002060009054906101000a900460ff16611010576040517f08c379a0000000000000000000000000000000000000000000000000000000008152600401611007906143f3565b60405180910390fd5b600060fc60008373ffffffffffffffffffffffffffffffffffffffff1673ffffffffffffffffffffffffffffffffffffffff16815260200190815260200160002060006101000a81548160ff0219169083151502179055508073ffffffffffffffffffffffffffffffffffffffff167fe94479a9f7e1952cc78f2d6baab678adc1b772d936c6583def489e524cb6669260405160405180910390a250565b60006012905090565b6b0409f9cbc7c4a04c2200000081565b60ff5481565b683635c9adc5dea0000081565b6000806110e5612e19565b90506111068185856110f785896125cf565b6111019190613f59565b612e21565b600191505092915050565b611119612ba1565b611121613019565b565b60008060019054906101000a900460ff161590508080156111545750600160008054906101000a900460ff1660ff16105b8061118157506111633061307c565b1580156111805750600160008054906101000a900460ff1660ff16145b5b6111c0576040517f08c379a00000000000000000000000000000000000000000000000000000000081526004016111b790614485565b60405180910390fd5b60016000806101000a81548160ff021916908360ff16021790555080156111fd576001600060016101000a81548160ff0219169083151502179055505b600073ffffffffffffffffffffffffffffffffffffffff168373ffffffffffffffffffffffffffffffffffffffff160361126c576040517f08c379a000000000000000000000000000000000000000000000000000000000815260040161126390614517565b60405180910390fd5b6112e06040518060400160405280601581526020017f436f6d706c69636573436f6e6563746120434d505800000000000000000000008152506040518060400160405280600481526020017f434d50580000000000000000000000000000000000000000000000000000000081525061309f565b6112e86130fc565b6112f183613155565b6112f961321b565b611301613274565b8160fe60006101000a81548160ff02191690831515021790555060006064603c6b0409f9cbc7c4a04c220000006113389190614537565b61134291906145a8565b905061134e8482612cb8565b8060fd819055508373ffffffffffffffffffffffffffffffffffffffff167f9d89e36eadf856db0ad9ffb5a569e07f95634dddd9501141ecf04820484ad0dc8260405161139b9190614625565b60405180910390a27f3ec229932e1d52f9ad94e43ee98f7609e49187cff15de13dd956b47651d1c584836040516113d291906139ef565b60405180910390a15080156114345760008060016101000a81548160ff0219169083151502179055507f7f26b83ff96e1f2b6a682f133852f6798a09c465da95921460cefb3847402498600160405161142b9190614698565b60405180910390a15b505050565b600060c960009054906101000a900460ff16905090565b611458612ba1565b611460612c1f565b611468612c6e565b600073ffffffffffffffffffffffffffffffffffffffff168273ffffffffffffffffffffffffffffffffffffffff16036114d7576040517f08c379a00000000000000000000000000000000000000000000000000000000081526004016114ce90614725565b60405180910390fd5b60fb60008373ffffffffffffffffffffffffffffffffffffffff1673ffffffffffffffffffffffffffffffffffffffff16815260200190815260200160002060009054906101000a900460ff1615611564576040517f08c379a000000000000000000000000000000000000000000000000000000000815260040161155b90614791565b60405180910390fd5b6103e88110156115a9576040517f08c379a00000000000000000000000000000000000000000000000000000000081526004016115a0906147fd565b60405180910390fd5b6000600a826115b891906145a8565b90506b0409f9cbc7c4a04c220000008160fd546115d59190613f59565b1115611616576040517f08c379a000000000000000000000000000000000000000000000000000000000815260040161160d90614045565b60405180910390fd5b6116208382612cb8565b8060fd60008282546116329190613f59565b925050819055508273ffffffffffffffffffffffffffffffffffffffff167f9d89e36eadf856db0ad9ffb5a569e07f95634dddd9501141ecf04820484ad0dc8260405161167f9190614869565b60405180910390a250611690612e0f565b5050565b6acecb8f27f4200f3a00000081565b6000603360008373ffffffffffffffffffffffffffffffffffffffff1673ffffffffffffffffffffffffffffffffffffffff168152602001908152602001600020549050919050565b6116f4612ba1565b6116fe6000613155565b565b60646acecb8f27f4200f3a00000061171891906145a8565b81565b611723612ba1565b61172b6132cd565b565b6000606560009054906101000a900473ffffffffffffffffffffffffffffffffffffffff16905090565b60fe60009054906101000a900460ff1681565b6101016020528060005260406000206000915090505481565b6060603780546117929061410e565b80601f01602080910402602001604051908101604052809291908181526020018280546117be9061410e565b801561180b5780601f106117e05761010080835404028352916020019161180b565b820191906000526020600020905b8154815290600101906020018083116117ee57829003601f168201915b5050505050905090565b61181d612ba1565b600073ffffffffffffffffffffffffffffffffffffffff168173ffffffffffffffffffffffffffffffffffffffff160361188c576040517f08c379a000000000000000000000000000000000000000000000000000000000815260040161188390614909565b60405180910390fd5b60fc60008273ffffffffffffffffffffffffffffffffffffffff1673ffffffffffffffffffffffffffffffffffffffff16815260200190815260200160002060009054906101000a900460ff1615611919576040517f08c379a000000000000000000000000000000000000000000000000000000000815260040161191090614975565b60405180910390fd5b600160fc60008373ffffffffffffffffffffffffffffffffffffffff1673ffffffffffffffffffffffffffffffffffffffff16815260200190815260200160002060006101000a81548160ff0219169083151502179055508073ffffffffffffffffffffffffffffffffffffffff167f6ae172837ea30b801fbfcdd4108aa1d5bf8ff775444fd70256b44e6bf3dfc3f660405160405180910390a250565b6119bf612c1f565b6119c7612c6e565b60fe60009054906101000a900460ff16611a16576040517f08c379a0000000000000000000000000000000000000000000000000000000008152600401611a0d90613de6565b60405180910390fd5b60008111611a59576040517f08c379a0000000000000000000000000000000000000000000000000000000008152600401611a5090614a07565b60405180910390fd5b60fb60003373ffffffffffffffffffffffffffffffffffffffff1673ffffffffffffffffffffffffffffffffffffffff16815260200190815260200160002060009054906101000a900460ff1615611ae6576040517f08c379a0000000000000000000000000000000000000000000000000000000008152600401611add90614a73565b60405180910390fd5b60006201518042611af791906145a8565b9050600061010160003373ffffffffffffffffffffffffffffffffffffffff1673ffffffffffffffffffffffffffffffffffffffff16815260200190815260200160002054905080821115611bd257600061010260003373ffffffffffffffffffffffffffffffffffffffff1673ffffffffffffffffffffffffffffffffffffffff168152602001908152602001600020819055508161010160003373ffffffffffffffffffffffffffffffffffffffff1673ffffffffffffffffffffffffffffffffffffffff168152602001908152602001600020819055505b600061010260003373ffffffffffffffffffffffffffffffffffffffff1673ffffffffffffffffffffffffffffffffffffffff16815260200190815260200160002054905060646acecb8f27f4200f3a000000611c2f91906145a8565b8482611c3b9190613f59565b1115611c7c576040517f08c379a0000000000000000000000000000000000000000000000000000000008152600401611c7390614b05565b60405180910390fd5b6acecb8f27f4200f3a0000008460ff54611c969190613f59565b1115611cd7576040517f08c379a0000000000000000000000000000000000000000000000000000000008152600401611cce90613fd9565b60405180910390fd5b6b0409f9cbc7c4a04c220000008460fd54611cf29190613f59565b1115611d33576040517f08c379a0000000000000000000000000000000000000000000000000000000008152600401611d2a90614045565b60405180910390fd5b8381611d3f9190613f59565b61010260003373ffffffffffffffffffffffffffffffffffffffff1673ffffffffffffffffffffffffffffffffffffffff168152602001908152602001600020819055508360ff6000828254611d959190613f59565b925050819055508360fd6000828254611dae9190613f59565b92505081905550611dbf3385612cb8565b3373ffffffffffffffffffffffffffffffffffffffff167f723f88ed961366fcc5df0c9d44f2fdd28bb539a22031f5333c22064fe466bf848585604051611e07929190614b25565b60405180910390a23373ffffffffffffffffffffffffffffffffffffffff167f9d89e36eadf856db0ad9ffb5a569e07f95634dddd9501141ecf04820484ad0dc85604051611e559190614b9a565b60405180910390a2505050611e68612e0f565b50565b60fd5481565b600080611e7c612e19565b90506000611e8a82866125cf565b905083811015611ecf576040517f08c379a0000000000000000000000000000000000000000000000000000000008152600401611ec690614c3a565b60405180910390fd5b611edc8286868403612e21565b60019250505092915050565b6000611ef2612c1f565b611efa612c6e565b60fb60003373ffffffffffffffffffffffffffffffffffffffff1673ffffffffffffffffffffffffffffffffffffffff16815260200190815260200160002060009054906101000a900460ff1615611f87576040517f08c379a0000000000000000000000000000000000000000000000000000000008152600401611f7e90614ca6565b60405180910390fd5b60fb60008473ffffffffffffffffffffffffffffffffffffffff1673ffffffffffffffffffffffffffffffffffffffff16815260200190815260200160002060009054906101000a900460ff1615612014576040517f08c379a000000000000000000000000000000000000000000000000000000000815260040161200b90614d12565b60405180910390fd5b600073ffffffffffffffffffffffffffffffffffffffff168373ffffffffffffffffffffffffffffffffffffffff1603612083576040517f08c379a000000000000000000000000000000000000000000000000000000000815260040161207a90614387565b60405180910390fd5b61208d8383613330565b9050612097612e0f565b92915050565b600060fc60008373ffffffffffffffffffffffffffffffffffffffff1673ffffffffffffffffffffffffffffffffffffffff16815260200190815260200160002060009054906101000a900460ff169050919050565b600080600080600061010060008773ffffffffffffffffffffffffffffffffffffffff1673ffffffffffffffffffffffffffffffffffffffff16815260200190815260200160002054945084683635c9adc5dea000001161215557600061216b565b84683635c9adc5dea0000061216a9190614d32565b5b93506000620151804261217e91906145a8565b9050600061010160008973ffffffffffffffffffffffffffffffffffffffff1673ffffffffffffffffffffffffffffffffffffffff168152602001908152602001600020549050808211156121f0576000945060646acecb8f27f4200f3a0000006121e991906145a8565b935061227f565b61010260008973ffffffffffffffffffffffffffffffffffffffff1673ffffffffffffffffffffffffffffffffffffffff1681526020019081526020016000205494508460646acecb8f27f4200f3a00000061224c91906145a8565b1161225857600061227c565b8460646acecb8f27f4200f3a00000061227191906145a8565b61227b9190614d32565b5b93505b60ff546acecb8f27f4200f3a0000001161229a5760006122b4565b60ff546acecb8f27f4200f3a0000006122b39190614d32565b5b9250505091939590929450565b6122c9612c1f565b6122d1612c6e565b60fc60003373ffffffffffffffffffffffffffffffffffffffff1673ffffffffffffffffffffffffffffffffffffffff16815260200190815260200160002060009054906101000a900460ff168061235b575061232c61172d565b73ffffffffffffffffffffffffffffffffffffffff163373ffffffffffffffffffffffffffffffffffffffff16145b61239a576040517f08c379a000000000000000000000000000000000000000000000000000000000815260040161239190614db2565b60405180910390fd5b600073ffffffffffffffffffffffffffffffffffffffff168473ffffffffffffffffffffffffffffffffffffffff1603612409576040517f08c379a000000000000000000000000000000000000000000000000000000000815260040161240090614e1e565b60405180910390fd5b60fb60008573ffffffffffffffffffffffffffffffffffffffff1673ffffffffffffffffffffffffffffffffffffffff16815260200190815260200160002060009054906101000a900460ff1615612496576040517f08c379a000000000000000000000000000000000000000000000000000000000815260040161248d90613f0a565b60405180910390fd5b6b0409f9cbc7c4a04c220000008360fd546124b19190613f59565b11156124f2576040517f08c379a00000000000000000000000000000000000000000000000000000000081526004016124e990614045565b60405180910390fd5b6124fc8484612cb8565b8260fd600082825461250e9190613f59565b925050819055508373ffffffffffffffffffffffffffffffffffffffff167f9d89e36eadf856db0ad9ffb5a569e07f95634dddd9501141ecf04820484ad0dc84848460405161255f93929190614e7a565b60405180910390a261256f612e0f565b50505050565b6101026020528060005260406000206000915090505481565b600060fd546b0409f9cbc7c4a04c220000006125aa9190614d32565b905090565b60fb6020528060005260406000206000915054906101000a900460ff1681565b6000603460008473ffffffffffffffffffffffffffffffffffffffff1673ffffffffffffffffffffffffffffffffffffffff16815260200190815260200160002060008373ffffffffffffffffffffffffffffffffffffffff1673ffffffffffffffffffffffffffffffffffffffff16815260200190815260200160002054905092915050565b61265e612c1f565b612666612c6e565b60fe60009054906101000a900460ff166126b5576040517f08c379a00000000000000000000000000000000000000000000000000000000081526004016126ac90613de6565b60405180910390fd5b600081116126f8576040517f08c379a00000000000000000000000000000000000000000000000000000000081526004016126ef90614a07565b60405180910390fd5b60fb60003373ffffffffffffffffffffffffffffffffffffffff1673ffffffffffffffffffffffffffffffffffffffff16815260200190815260200160002060009054906101000a900460ff1615612785576040517f08c379a000000000000000000000000000000000000000000000000000000000815260040161277c90614a73565b60405180910390fd5b600061010060003373ffffffffffffffffffffffffffffffffffffffff1673ffffffffffffffffffffffffffffffffffffffff168152602001908152602001600020549050683635c9adc5dea0000082826127e09190613f59565b1115612821576040517f08c379a000000000000000000000000000000000000000000000000000000000815260040161281890614f1e565b60405180910390fd5b6acecb8f27f4200f3a0000008260ff5461283b9190613f59565b111561287c576040517f08c379a000000000000000000000000000000000000000000000000000000000815260040161287390613fd9565b60405180910390fd5b6b0409f9cbc7c4a04c220000008260fd546128979190613f59565b11156128d8576040517f08c379a00000000000000000000000000000000000000000000000000000000081526004016128cf90614045565b60405180910390fd5b81816128e49190613f59565b61010060003373ffffffffffffffffffffffffffffffffffffffff1673ffffffffffffffffffffffffffffffffffffffff168152602001908152602001600020819055508160ff600082825461293a9190613f59565b925050819055508160fd60008282546129539190613f59565b925050819055506129643383612cb8565b3373ffffffffffffffffffffffffffffffffffffffff167f9417dd67208f23de699a10b017c6c4d30bd6053fdf749c17b27c41683af91f2e836040516129aa9190613a85565b60405180910390a23373ffffffffffffffffffffffffffffffffffffffff167f9d89e36eadf856db0ad9ffb5a569e07f95634dddd9501141ecf04820484ad0dc836040516129f89190614f8a565b60405180910390a250612a09612e0f565b50565b600080600080600060fe60009054906101000a900460ff16945060ff54935060ff546acecb8f27f4200f3a00000011612a46576000612a60565b60ff546acecb8f27f4200f3a000000612a5f9190614d32565b5b9250683635c9adc5dea00000915060646acecb8f27f4200f3a000000612a8691906145a8565b90509091929394565b6101006020528060005260406000206000915090505481565b612ab0612ba1565b600073ffffffffffffffffffffffffffffffffffffffff168173ffffffffffffffffffffffffffffffffffffffff1603612b1f576040517f08c379a0000000000000000000000000000000000000000000000000000000008152600401612b169061502a565b60405180910390fd5b612b2881613155565b50565b60fc6020528060005260406000206000915054906101000a900460ff1681565b600060fb60008373ffffffffffffffffffffffffffffffffffffffff1673ffffffffffffffffffffffffffffffffffffffff16815260200190815260200160002060009054906101000a900460ff169050919050565b612ba9612e19565b73ffffffffffffffffffffffffffffffffffffffff16612bc761172d565b73ffffffffffffffffffffffffffffffffffffffff1614612c1d576040517f08c379a0000000000000000000000000000000000000000000000000000000008152600401612c1490615096565b60405180910390fd5b565b600260975403612c64576040517f08c379a0000000000000000000000000000000000000000000000000000000008152600401612c5b90615102565b60405180910390fd5b6002609781905550565b612c76611439565b15612cb6576040517f08c379a0000000000000000000000000000000000000000000000000000000008152600401612cad9061516e565b60405180910390fd5b565b600073ffffffffffffffffffffffffffffffffffffffff168273ffffffffffffffffffffffffffffffffffffffff1603612d27576040517f08c379a0000000000000000000000000000000000000000000000000000000008152600401612d1e906151da565b60405180910390fd5b612d3360008383613353565b8060356000828254612d459190613f59565b9250508190555080603360008473ffffffffffffffffffffffffffffffffffffffff1673ffffffffffffffffffffffffffffffffffffffff168152602001908152602001600020600082825401925050819055508173ffffffffffffffffffffffffffffffffffffffff16600073ffffffffffffffffffffffffffffffffffffffff167fddf252ad1be2c89b69c2b068fc378daa952ba7f163c4a11628f55a4df523b3ef83604051612df79190613a85565b60405180910390a3612e0b60008383613358565b5050565b6001609781905550565b600033905090565b600073ffffffffffffffffffffffffffffffffffffffff168373ffffffffffffffffffffffffffffffffffffffff1603612e90576040517f08c379a0000000000000000000000000000000000000000000000000000000008152600401612e879061526c565b60405180910390fd5b600073ffffffffffffffffffffffffffffffffffffffff168273ffffffffffffffffffffffffffffffffffffffff1603612eff576040517f08c379a0000000000000000000000000000000000000000000000000000000008152600401612ef6906152fe565b60405180910390fd5b80603460008573ffffffffffffffffffffffffffffffffffffffff1673ffffffffffffffffffffffffffffffffffffffff16815260200190815260200160002060008473ffffffffffffffffffffffffffffffffffffffff1673ffffffffffffffffffffffffffffffffffffffff168152602001908152602001600020819055508173ffffffffffffffffffffffffffffffffffffffff168373ffffffffffffffffffffffffffffffffffffffff167f8c5be1e5ebec7d5bd14f71427d1e84f3dd0314c0f7b2291e5b200ac8c7c3b92583604051612fdd9190613a85565b60405180910390a3505050565b600080612ff5612e19565b905061300285828561335d565b61300d8585856133e9565b60019150509392505050565b613021613662565b600060c960006101000a81548160ff0219169083151502179055507f5db9ee0a495bf2e6ff9c91a7834c1ba4fdd244a5e8aa4e537bd38aeae4b073aa613065612e19565b6040516130729190613b93565b60405180910390a1565b6000808273ffffffffffffffffffffffffffffffffffffffff163b119050919050565b600060019054906101000a900460ff166130ee576040517f08c379a00000000000000000000000000000000000000000000000000000000081526004016130e590615390565b60405180910390fd5b6130f882826136ab565b5050565b600060019054906101000a900460ff1661314b576040517f08c379a000000000000000000000000000000000000000000000000000000000815260040161314290615390565b60405180910390fd5b61315361371e565b565b6000606560009054906101000a900473ffffffffffffffffffffffffffffffffffffffff16905081606560006101000a81548173ffffffffffffffffffffffffffffffffffffffff021916908373ffffffffffffffffffffffffffffffffffffffff1602179055508173ffffffffffffffffffffffffffffffffffffffff168173ffffffffffffffffffffffffffffffffffffffff167f8be0079c531659141344cd1fd0a4f28419497f9722a3daafe3b4186f6b6457e060405160405180910390a35050565b600060019054906101000a900460ff1661326a576040517f08c379a000000000000000000000000000000000000000000000000000000000815260040161326190615390565b60405180910390fd5b61327261377f565b565b600060019054906101000a900460ff166132c3576040517f08c379a00000000000000000000000000000000000000000000000000000000081526004016132ba90615390565b60405180910390fd5b6132cb6137d8565b565b6132d5612c6e565b600160c960006101000a81548160ff0219169083151502179055507f62e78cea01bee320cd4e420270b5ea74000d11b0c9f74754ebdbfc544b05a258613319612e19565b6040516133269190613b93565b60405180910390a1565b60008061333b612e19565b90506133488185856133e9565b600191505092915050565b505050565b505050565b600061336984846125cf565b90507fffffffffffffffffffffffffffffffffffffffffffffffffffffffffffffffff81146133e357818110156133d5576040517f08c379a00000000000000000000000000000000000000000000000000000000081526004016133cc906153fc565b60405180910390fd5b6133e28484848403612e21565b5b50505050565b600073ffffffffffffffffffffffffffffffffffffffff168373ffffffffffffffffffffffffffffffffffffffff1603613458576040517f08c379a000000000000000000000000000000000000000000000000000000000815260040161344f9061548e565b60405180910390fd5b600073ffffffffffffffffffffffffffffffffffffffff168273ffffffffffffffffffffffffffffffffffffffff16036134c7576040517f08c379a00000000000000000000000000000000000000000000000000000000081526004016134be90615520565b60405180910390fd5b6134d2838383613353565b6000603360008573ffffffffffffffffffffffffffffffffffffffff1673ffffffffffffffffffffffffffffffffffffffff16815260200190815260200160002054905081811015613559576040517f08c379a0000000000000000000000000000000000000000000000000000000008152600401613550906155b2565b60405180910390fd5b818103603360008673ffffffffffffffffffffffffffffffffffffffff1673ffffffffffffffffffffffffffffffffffffffff1681526020019081526020016000208190555081603360008573ffffffffffffffffffffffffffffffffffffffff1673ffffffffffffffffffffffffffffffffffffffff168152602001908152602001600020600082825401925050819055508273ffffffffffffffffffffffffffffffffffffffff168473ffffffffffffffffffffffffffffffffffffffff167fddf252ad1be2c89b69c2b068fc378daa952ba7f163c4a11628f55a4df523b3ef846040516136499190613a85565b60405180910390a361365c848484613358565b50505050565b61366a611439565b6136a9576040517f08c379a00000000000000000000000000000000000000000000000000000000081526004016136a09061561e565b60405180910390fd5b565b600060019054906101000a900460ff166136fa576040517f08c379a00000000000000000000000000000000000000000000000000000000081526004016136f190615390565b60405180910390fd5b8160369081613709919061580f565b508060379081613719919061580f565b505050565b600060019054906101000a900460ff1661376d576040517f08c379a000000000000000000000000000000000000000000000000000000000815260040161376490615390565b60405180910390fd5b61377d613778612e19565b613155565b565b600060019054906101000a900460ff166137ce576040517f08c379a00000000000000000000000000000000000000000000000000000000081526004016137c590615390565b60405180910390fd5b6001609781905550565b600060019054906101000a900460ff16613827576040517f08c379a000000000000000000000000000000000000000000000000000000000815260040161381e90615390565b60405180910390fd5b600060c960006101000a81548160ff021916908315150217905550565b600080fd5b600080fd5b600073ffffffffffffffffffffffffffffffffffffffff82169050919050565b60006138798261384e565b9050919050565b6138898161386e565b811461389457600080fd5b50565b6000813590506138a681613880565b92915050565b6000819050919050565b6138bf816138ac565b81146138ca57600080fd5b50565b6000813590506138dc816138b6565b92915050565b600080604083850312156138f9576138f8613844565b5b600061390785828601613897565b9250506020613918858286016138cd565b9150509250929050565b600081519050919050565b600082825260208201905092915050565b60005b8381101561395c578082015181840152602081019050613941565b60008484015250505050565b6000601f19601f8301169050919050565b600061398482613922565b61398e818561392d565b935061399e81856020860161393e565b6139a781613968565b840191505092915050565b600060208201905081810360008301526139cc8184613979565b905092915050565b60008115159050919050565b6139e9816139d4565b82525050565b6000602082019050613a0460008301846139e0565b92915050565b613a13816139d4565b8114613a1e57600080fd5b50565b600081359050613a3081613a0a565b92915050565b60008060408385031215613a4d57613a4c613844565b5b6000613a5b85828601613897565b9250506020613a6c85828601613a21565b9150509250929050565b613a7f816138ac565b82525050565b6000602082019050613a9a6000830184613a76565b92915050565b600080600060608486031215613ab957613ab8613844565b5b6000613ac786828701613897565b9350506020613ad886828701613897565b9250506040613ae9868287016138cd565b9150509250925092565b600060208284031215613b0957613b08613844565b5b6000613b1784828501613a21565b91505092915050565b600060208284031215613b3657613b35613844565b5b6000613b4484828501613897565b91505092915050565b600060ff82169050919050565b613b6381613b4d565b82525050565b6000602082019050613b7e6000830184613b5a565b92915050565b613b8d8161386e565b82525050565b6000602082019050613ba86000830184613b84565b92915050565b600060208284031215613bc457613bc3613844565b5b6000613bd2848285016138cd565b91505092915050565b600060a082019050613bf06000830188613a76565b613bfd6020830187613a76565b613c0a6040830186613a76565b613c176060830185613a76565b613c246080830184613a76565b9695505050505050565b600080fd5b600080fd5b600080fd5b60008083601f840112613c5357613c52613c2e565b5b8235905067ffffffffffffffff811115613c7057613c6f613c33565b5b602083019150836001820283011115613c8c57613c8b613c38565b5b9250929050565b60008060008060608587031215613cad57613cac613844565b5b6000613cbb87828801613897565b9450506020613ccc878288016138cd565b935050604085013567ffffffffffffffff811115613ced57613cec613849565b5b613cf987828801613c3d565b925092505092959194509250565b60008060408385031215613d1e57613d1d613844565b5b6000613d2c85828601613897565b9250506020613d3d85828601613897565b9150509250929050565b600060a082019050613d5c60008301886139e0565b613d696020830187613a76565b613d766040830186613a76565b613d836060830185613a76565b613d906080830184613a76565b9695505050505050565b7f434d50583a204e6f7420696e20746573746e6574206d6f646500000000000000600082015250565b6000613dd060198361392d565b9150613ddb82613d9a565b602082019050919050565b60006020820190508181036000830152613dff81613dc3565b9050919050565b7f434d50583a2043616e6e6f74206d696e7420746f207a65726f2061646472657360008201527f7300000000000000000000000000000000000000000000000000000000000000602082015250565b6000613e6260218361392d565b9150613e6d82613e06565b604082019050919050565b60006020820190508181036000830152613e9181613e55565b9050919050565b7f434d50583a2043616e6e6f74206d696e7420746f20626c61636b6c697374656460008201527f2061646472657373000000000000000000000000000000000000000000000000602082015250565b6000613ef460288361392d565b9150613eff82613e98565b604082019050919050565b60006020820190508181036000830152613f2381613ee7565b9050919050565b7f4e487b7100000000000000000000000000000000000000000000000000000000600052601160045260246000fd5b6000613f64826138ac565b9150613f6f836138ac565b9250828201905080821115613f8757613f86613f2a565b5b92915050565b7f434d50583a204578636565647320746573746e657420706f6f6c000000000000600082015250565b6000613fc3601a8361392d565b9150613fce82613f8d565b602082019050919050565b60006020820190508181036000830152613ff281613fb6565b9050919050565b7f434d50583a2045786365656473206d617820737570706c790000000000000000600082015250565b600061402f60188361392d565b915061403a82613ff9565b602082019050919050565b6000602082019050818103600083015261405e81614022565b9050919050565b7f546573746e6574206d696e74206279206f776e65720000000000000000000000600082015250565b600061409b60158361392d565b91506140a682614065565b602082019050919050565b60006040820190506140c66000830184613a76565b81810360208301526140d78161408e565b905092915050565b7f4e487b7100000000000000000000000000000000000000000000000000000000600052602260045260246000fd5b6000600282049050600182168061412657607f821691505b602082108103614139576141386140df565b5b50919050565b7f434d50583a2043616e6e6f7420626c61636b6c697374207a65726f206164647260008201527f6573730000000000000000000000000000000000000000000000000000000000602082015250565b600061419b60238361392d565b91506141a68261413f565b604082019050919050565b600060208201905081810360008301526141ca8161418e565b9050919050565b7f434d50583a2043616e6e6f7420626c61636b6c697374206f776e657200000000600082015250565b6000614207601c8361392d565b9150614212826141d1565b602082019050919050565b60006020820190508181036000830152614236816141fa565b9050919050565b7f434d50583a2046726f6d206164647265737320697320626c61636b6c6973746560008201527f6400000000000000000000000000000000000000000000000000000000000000602082015250565b600061429960218361392d565b91506142a48261423d565b604082019050919050565b600060208201905081810360008301526142c88161428c565b9050919050565b7f434d50583a20546f206164647265737320697320626c61636b6c697374656400600082015250565b6000614305601f8361392d565b9150614310826142cf565b602082019050919050565b60006020820190508181036000830152614334816142f8565b9050919050565b7f434d50583a205472616e7366657220746f207a65726f20616464726573730000600082015250565b6000614371601e8361392d565b915061437c8261433b565b602082019050919050565b600060208201905081810360008301526143a081614364565b9050919050565b7f434d50583a204e6f742061206d696e7465720000000000000000000000000000600082015250565b60006143dd60128361392d565b91506143e8826143a7565b602082019050919050565b6000602082019050818103600083015261440c816143d0565b9050919050565b7f496e697469616c697a61626c653a20636f6e747261637420697320616c72656160008201527f647920696e697469616c697a6564000000000000000000000000000000000000602082015250565b600061446f602e8361392d565b915061447a82614413565b604082019050919050565b6000602082019050818103600083015261449e81614462565b9050919050565b7f434d50583a204f776e65722063616e6e6f74206265207a65726f20616464726560008201527f7373000000000000000000000000000000000000000000000000000000000000602082015250565b600061450160228361392d565b915061450c826144a5565b604082019050919050565b60006020820190508181036000830152614530816144f4565b9050919050565b6000614542826138ac565b915061454d836138ac565b925082820261455b816138ac565b9150828204841483151761457257614571613f2a565b5b5092915050565b7f4e487b7100000000000000000000000000000000000000000000000000000000600052601260045260246000fd5b60006145b3826138ac565b91506145be836138ac565b9250826145ce576145cd614579565b5b828204905092915050565b7f496e697469616c20646973747269627574696f6e000000000000000000000000600082015250565b600061460f60148361392d565b915061461a826145d9565b602082019050919050565b600060408201905061463a6000830184613a76565b818103602083015261464b81614602565b905092915050565b6000819050919050565b6000819050919050565b600061468261467d61467884614653565b61465d565b613b4d565b9050919050565b61469281614667565b82525050565b60006020820190506146ad6000830184614689565b92915050565b7f434d50583a20557365722063616e6e6f74206265207a65726f2061646472657360008201527f7300000000000000000000000000000000000000000000000000000000000000602082015250565b600061470f60218361392d565b915061471a826146b3565b604082019050919050565b6000602082019050818103600083015261473e81614702565b9050919050565b7f434d50583a205573657220697320626c61636b6c697374656400000000000000600082015250565b600061477b60198361392d565b915061478682614745565b602082019050919050565b600060208201905081810360008301526147aa8161476e565b9050919050565b7f434d50583a204d696e696d756d20313030302054502072657175697265640000600082015250565b60006147e7601e8361392d565b91506147f2826147b1565b602082019050919050565b60006020820190508181036000830152614816816147da565b9050919050565b7f5072656d69756d20636f6e76657273696f6e0000000000000000000000000000600082015250565b600061485360128361392d565b915061485e8261481d565b602082019050919050565b600060408201905061487e6000830184613a76565b818103602083015261488f81614846565b905092915050565b7f434d50583a204d696e7465722063616e6e6f74206265207a65726f206164647260008201527f6573730000000000000000000000000000000000000000000000000000000000602082015250565b60006148f360238361392d565b91506148fe82614897565b604082019050919050565b60006020820190508181036000830152614922816148e6565b9050919050565b7f434d50583a20416c72656164792061206d696e74657200000000000000000000600082015250565b600061495f60168361392d565b915061496a82614929565b602082019050919050565b6000602082019050818103600083015261498e81614952565b9050919050565b7f434d50583a20416d6f756e74206d75737420626520677265617465722074686160008201527f6e20300000000000000000000000000000000000000000000000000000000000602082015250565b60006149f160238361392d565b91506149fc82614995565b604082019050919050565b60006020820190508181036000830152614a20816149e4565b9050919050565b7f434d50583a204164647265737320697320626c61636b6c697374656400000000600082015250565b6000614a5d601c8361392d565b9150614a6882614a27565b602082019050919050565b60006020820190508181036000830152614a8c81614a50565b9050919050565b7f434d50583a2045786365656473206461696c79206c696d69742070657220757360008201527f6572000000000000000000000000000000000000000000000000000000000000602082015250565b6000614aef60228361392d565b9150614afa82614a93565b604082019050919050565b60006020820190508181036000830152614b1e81614ae2565b9050919050565b6000604082019050614b3a6000830185613a76565b614b476020830184613a76565b9392505050565b7f4461696c7920636c61696d000000000000000000000000000000000000000000600082015250565b6000614b84600b8361392d565b9150614b8f82614b4e565b602082019050919050565b6000604082019050614baf6000830184613a76565b8181036020830152614bc081614b77565b905092915050565b7f45524332303a2064656372656173656420616c6c6f77616e63652062656c6f7760008201527f207a65726f000000000000000000000000000000000000000000000000000000602082015250565b6000614c2460258361392d565b9150614c2f82614bc8565b604082019050919050565b60006020820190508181036000830152614c5381614c17565b9050919050565b7f434d50583a2053656e64657220697320626c61636b6c69737465640000000000600082015250565b6000614c90601b8361392d565b9150614c9b82614c5a565b602082019050919050565b60006020820190508181036000830152614cbf81614c83565b9050919050565b7f434d50583a20526563697069656e7420697320626c61636b6c69737465640000600082015250565b6000614cfc601e8361392d565b9150614d0782614cc6565b602082019050919050565b60006020820190508181036000830152614d2b81614cef565b9050919050565b6000614d3d826138ac565b9150614d48836138ac565b9250828203905081811115614d6057614d5f613f2a565b5b92915050565b7f434d50583a204e6f7420617574686f72697a656420746f206d696e7400000000600082015250565b6000614d9c601c8361392d565b9150614da782614d66565b602082019050919050565b60006020820190508181036000830152614dcb81614d8f565b9050919050565b7f434d50583a204d696e7420746f207a65726f2061646472657373000000000000600082015250565b6000614e08601a8361392d565b9150614e1382614dd2565b602082019050919050565b60006020820190508181036000830152614e3781614dfb565b9050919050565b82818337600083830152505050565b6000614e59838561392d565b9350614e66838584614e3e565b614e6f83613968565b840190509392505050565b6000604082019050614e8f6000830186613a76565b8181036020830152614ea2818486614e4d565b9050949350505050565b7f434d50583a204578636565647320746573746e6574206c696d6974207065722060008201527f7573657200000000000000000000000000000000000000000000000000000000602082015250565b6000614f0860248361392d565b9150614f1382614eac565b604082019050919050565b60006020820190508181036000830152614f3781614efb565b9050919050565b7f546573746e657420636c61696d00000000000000000000000000000000000000600082015250565b6000614f74600d8361392d565b9150614f7f82614f3e565b602082019050919050565b6000604082019050614f9f6000830184613a76565b8181036020830152614fb081614f67565b905092915050565b7f4f776e61626c653a206e6577206f776e657220697320746865207a65726f206160008201527f6464726573730000000000000000000000000000000000000000000000000000602082015250565b600061501460268361392d565b915061501f82614fb8565b604082019050919050565b6000602082019050818103600083015261504381615007565b9050919050565b7f4f776e61626c653a2063616c6c6572206973206e6f7420746865206f776e6572600082015250565b600061508060208361392d565b915061508b8261504a565b602082019050919050565b600060208201905081810360008301526150af81615073565b9050919050565b7f5265656e7472616e637947756172643a207265656e7472616e742063616c6c00600082015250565b60006150ec601f8361392d565b91506150f7826150b6565b602082019050919050565b6000602082019050818103600083015261511b816150df565b9050919050565b7f5061757361626c653a2070617573656400000000000000000000000000000000600082015250565b600061515860108361392d565b915061516382615122565b602082019050919050565b600060208201905081810360008301526151878161514b565b9050919050565b7f45524332303a206d696e7420746f20746865207a65726f206164647265737300600082015250565b60006151c4601f8361392d565b91506151cf8261518e565b602082019050919050565b600060208201905081810360008301526151f3816151b7565b9050919050565b7f45524332303a20617070726f76652066726f6d20746865207a65726f2061646460008201527f7265737300000000000000000000000000000000000000000000000000000000602082015250565b600061525660248361392d565b9150615261826151fa565b604082019050919050565b6000602082019050818103600083015261528581615249565b9050919050565b7f45524332303a20617070726f766520746f20746865207a65726f20616464726560008201527f7373000000000000000000000000000000000000000000000000000000000000602082015250565b60006152e860228361392d565b91506152f38261528c565b604082019050919050565b60006020820190508181036000830152615317816152db565b9050919050565b7f496e697469616c697a61626c653a20636f6e7472616374206973206e6f74206960008201527f6e697469616c697a696e67000000000000000000000000000000000000000000602082015250565b600061537a602b8361392d565b91506153858261531e565b604082019050919050565b600060208201905081810360008301526153a98161536d565b9050919050565b7f45524332303a20696e73756666696369656e7420616c6c6f77616e6365000000600082015250565b60006153e6601d8361392d565b91506153f1826153b0565b602082019050919050565b60006020820190508181036000830152615415816153d9565b9050919050565b7f45524332303a207472616e736665722066726f6d20746865207a65726f20616460008201527f6472657373000000000000000000000000000000000000000000000000000000602082015250565b600061547860258361392d565b91506154838261541c565b604082019050919050565b600060208201905081810360008301526154a78161546b565b9050919050565b7f45524332303a207472616e7366657220746f20746865207a65726f206164647260008201527f6573730000000000000000000000000000000000000000000000000000000000602082015250565b600061550a60238361392d565b9150615515826154ae565b604082019050919050565b60006020820190508181036000830152615539816154fd565b9050919050565b7f45524332303a207472616e7366657220616d6f756e742065786365656473206260008201527f616c616e63650000000000000000000000000000000000000000000000000000602082015250565b600061559c60268361392d565b91506155a782615540565b604082019050919050565b600060208201905081810360008301526155cb8161558f565b9050919050565b7f5061757361626c653a206e6f7420706175736564000000000000000000000000600082015250565b600061560860148361392d565b9150615613826155d2565b602082019050919050565b60006020820190508181036000830152615637816155fb565b9050919050565b7f4e487b7100000000000000000000000000000000000000000000000000000000600052604160045260246000fd5b60008190508160005260206000209050919050565b60006020601f8301049050919050565b600082821b905092915050565b6000600883026156cf7fffffffffffffffffffffffffffffffffffffffffffffffffffffffffffffffff82615692565b6156d98683615692565b95508019841693508086168417925050509392505050565b600061570c615707615702846138ac565b61465d565b6138ac565b9050919050565b6000819050919050565b615726836156f1565b61573a61573282615713565b84845461569f565b825550505050565b600090565b61574f615742565b61575a81848461571d565b505050565b5b8181101561577e57615773600082615747565b600181019050615760565b5050565b601f8211156157c3576157948161566d565b61579d84615682565b810160208510156157ac578190505b6157c06157b885615682565b83018261575f565b50505b505050565b600082821c905092915050565b60006157e6600019846008026157c8565b1980831691505092915050565b60006157ff83836157d5565b9150826002028217905092915050565b61581882613922565b67ffffffffffffffff8111156158315761583061563e565b5b61583b825461410e565b615846828285615782565b600060209050601f8311600181146158795760008415615867578287015190505b61587185826157f3565b8655506158d9565b601f1984166158878661566d565b60005b828110156158af5784890151825560018201915060208501945060208101905061588a565b868310156158cc57848901516158c8601f8916826157d5565b8355505b6001600288020188555050505b50505050505056fea2646970667358221220539f63a655effc588fbe945bb0aebf872ed310632b825ef6f795fb4093a82aad64736f6c63430008190033",
  "linkReferences": {},
  "deployedLinkReferences": {}
}