{
  "_format": "hh-sol-artifact-1",
  "contractName": "StakingPool",
  "sourceName": "contracts/StakingPool.sol",
  "abi": [
    {
      "inputs": [
        {
          "internalType": "address",
          "name": "_nftContract",
          "type": "address"
        },
        {
          "internalType": "address",
          "name": "_gtkToken",
          "type": "address"
        },
        {
          "internalType": "address",
          "name": "_cmpxToken",
          "type": "address"
        }
      ],
      "stateMutability": "nonpayable",
      "type": "constructor"
    },
    {
      "anonymous": false,
      "inputs": [
        {
          "indexed": true,
          "internalType": "address",
          "name": "user",
          "type": "address"
        },
        {
          "indexed": true,
          "internalType": "uint256",
          "name": "tokenId",
          "type": "uint256"
        },
        {
          "indexed": false,
          "internalType": "uint256",
          "name": "vestingPeriod",
          "type": "uint256"
        },
        {
          "indexed": false,
          "internalType": "uint256",
          "name": "rarityMultiplier",
          "type": "uint256"
        },
        {
          "indexed": false,
          "internalType": "uint256",
          "name": "timestamp",
          "type": "uint256"
        }
      ],
      "name": "NFTStaked",
      "type": "event"
    },
    {
      "anonymous": false,
      "inputs": [
        {
          "indexed": true,
          "internalType": "address",
          "name": "user",
          "type": "address"
        },
        {
          "indexed": true,
          "internalType": "uint256",
          "name": "tokenId",
          "type": "uint256"
        },
        {
          "indexed": false,
          "internalType": "uint256",
          "name": "rewards",
          "type": "uint256"
        },
        {
          "indexed": false,
          "internalType": "uint256",
          "name": "penalty",
          "type": "uint256"
        },
        {
          "indexed": false,
          "internalType": "uint256",
          "name": "timestamp",
          "type": "uint256"
        }
      ],
      "name": "NFTUnstaked",
      "type": "event"
    },
    {
      "anonymous": false,
      "inputs": [
        {
          "indexed": true,
          "internalType": "address",
          "name": "previousOwner",
          "type": "address"
        },
        {
          "indexed": true,
          "internalType": "address",
          "name": "newOwner",
          "type": "address"
        }
      ],
      "name": "OwnershipTransferred",
      "type": "event"
    },
    {
      "anonymous": false,
      "inputs": [
        {
          "indexed": false,
          "internalType": "address",
          "name": "account",
          "type": "address"
        }
      ],
      "name": "Paused",
      "type": "event"
    },
    {
      "anonymous": false,
      "inputs": [
        {
          "indexed": true,
          "internalType": "address",
          "name": "user",
          "type": "address"
        },
        {
          "indexed": false,
          "internalType": "uint256",
          "name": "amount",
          "type": "uint256"
        },
        {
          "indexed": false,
          "internalType": "uint256",
          "name": "timestamp",
          "type": "uint256"
        }
      ],
      "name": "RewardsClaimed",
      "type": "event"
    },
    {
      "anonymous": false,
      "inputs": [
        {
          "indexed": false,
          "internalType": "uint256",
          "name": "amount",
          "type": "uint256"
        },
        {
          "indexed": false,
          "internalType": "uint256",
          "name": "timestamp",
          "type": "uint256"
        }
      ],
      "name": "RewardsPoolFunded",
      "type": "event"
    },
    {
      "anonymous": false,
      "inputs": [
        {
          "indexed": true,
          "internalType": "address",
          "name": "user",
          "type": "address"
        },
        {
          "indexed": true,
          "internalType": "uint256",
          "name": "stakeIndex",
          "type": "uint256"
        },
        {
          "indexed": false,
          "internalType": "uint256",
          "name": "amount",
          "type": "uint256"
        },
        {
          "indexed": false,
          "internalType": "uint256",
          "name": "vestingPeriod",
          "type": "uint256"
        },
        {
          "indexed": false,
          "internalType": "uint256",
          "name": "timestamp",
          "type": "uint256"
        }
      ],
      "name": "TokensStaked",
      "type": "event"
    },
    {
      "anonymous": false,
      "inputs": [
        {
          "indexed": true,
          "internalType": "address",
          "name": "user",
          "type": "address"
        },
        {
          "indexed": true,
          "internalType": "uint256",
          "name": "stakeIndex",
          "type": "uint256"
        },
        {
          "indexed": false,
          "internalType": "uint256",
          "name": "amount",
          "type": "uint256"
        },
        {
          "indexed": false,
          "internalType": "uint256",
          "name": "rewards",
          "type": "uint256"
        },
        {
          "indexed": false,
          "internalType": "uint256",
          "name": "penalty",
          "type": "uint256"
        },
        {
          "indexed": false,
          "internalType": "uint256",
          "name": "timestamp",
          "type": "uint256"
        }
      ],
      "name": "TokensUnstaked",
      "type": "event"
    },
    {
      "anonymous": false,
      "inputs": [
        {
          "indexed": false,
          "internalType": "address",
          "name": "account",
          "type": "address"
        }
      ],
      "name": "Unpaused",
      "type": "event"
    },
    {
      "inputs": [],
      "name": "BASE_APY",
      "outputs": [
        {
          "internalType": "uint256",
          "name": "",
          "type": "uint256"
        }
      ],
      "stateMutability": "view",
      "type": "function"
    },
    {
      "inputs": [],
      "name": "EARLY_UNSTAKE_PENALTY",
      "outputs": [
        {
          "internalType": "uint256",
          "name": "",
          "type": "uint256"
        }
      ],
      "stateMutability": "view",
      "type": "function"
    },
    {
      "inputs": [],
      "name": "MAX_APY",
      "outputs": [
        {
          "internalType": "uint256",
          "name": "",
          "type": "uint256"
        }
      ],
      "stateMutability": "view",
      "type": "function"
    },
    {
      "inputs": [],
      "name": "MAX_VESTING_PERIOD",
      "outputs": [
        {
          "internalType": "uint256",
          "name": "",
          "type": "uint256"
        }
      ],
      "stateMutability": "view",
      "type": "function"
    },
    {
      "inputs": [],
      "name": "MIN_VESTING_PERIOD",
      "outputs": [
        {
          "internalType": "uint256",
          "name": "",
          "type": "uint256"
        }
      ],
      "stateMutability": "view",
      "type": "function"
    },
    {
      "inputs": [],
      "name": "MULTIPLIER",
      "outputs": [
        {
          "internalType": "uint256",
          "name": "",
          "type": "uint256"
        }
      ],
      "stateMutability": "view",
      "type": "function"
    },
    {
      "inputs": [
        {
          "internalType": "uint256",
          "name": "tokenId",
          "type": "uint256"
        }
      ],
      "name": "calculateNFTRewards",
      "outputs": [
        {
          "internalType": "uint256",
          "name": "",
          "type": "uint256"
        }
      ],
      "stateMutability": "view",
      "type": "function"
    },
    {
      "inputs": [
        {
          "internalType": "address",
          "name": "user",
          "type": "address"
        },
        {
          "internalType": "uint256",
          "name": "stakeIndex",
          "type": "uint256"
        }
      ],
      "name": "calculateTokenRewards",
      "outputs": [
        {
          "internalType": "uint256",
          "name": "",
          "type": "uint256"
        }
      ],
      "stateMutability": "view",
      "type": "function"
    },
    {
      "inputs": [
        {
          "internalType": "uint256",
          "name": "tokenId",
          "type": "uint256"
        }
      ],
      "name": "claimNFTRewards",
      "outputs": [],
      "stateMutability": "nonpayable",
      "type": "function"
    },
    {
      "inputs": [
        {
          "internalType": "uint256",
          "name": "stakeIndex",
          "type": "uint256"
        }
      ],
      "name": "claimTokenRewards",
      "outputs": [],
      "stateMutability": "nonpayable",
      "type": "function"
    },
    {
      "inputs": [],
      "name": "cmpxToken",
      "outputs": [
        {
          "internalType": "contract IERC20",
          "name": "",
          "type": "address"
        }
      ],
      "stateMutability": "view",
      "type": "function"
    },
    {
      "inputs": [
        {
          "internalType": "uint256",
          "name": "amount",
          "type": "uint256"
        }
      ],
      "name": "fundRewardsPool",
      "outputs": [],
      "stateMutability": "nonpayable",
      "type": "function"
    },
    {
      "inputs": [
        {
          "internalType": "address",
          "name": "user",
          "type": "address"
        }
      ],
      "name": "getUserStakedNFTs",
      "outputs": [
        {
          "internalType": "uint256[]",
          "name": "",
          "type": "uint256[]"
        }
      ],
      "stateMutability": "view",
      "type": "function"
    },
    {
      "inputs": [],
      "name": "gtkToken",
      "outputs": [
        {
          "internalType": "contract IERC20",
          "name": "",
          "type": "address"
        }
      ],
      "stateMutability": "view",
      "type": "function"
    },
    {
      "inputs": [],
      "name": "nftContract",
      "outputs": [
        {
          "internalType": "contract IERC721",
          "name": "",
          "type": "address"
        }
      ],
      "stateMutability": "view",
      "type": "function"
    },
    {
      "inputs": [
        {
          "internalType": "uint256",
          "name": "",
          "type": "uint256"
        }
      ],
      "name": "nftStakes",
      "outputs": [
        {
          "internalType": "address",
          "name": "owner",
          "type": "address"
        },
        {
          "internalType": "uint256",
          "name": "tokenId",
          "type": "uint256"
        },
        {
          "internalType": "uint256",
          "name": "stakedAt",
          "type": "uint256"
        },
        {
          "internalType": "uint256",
          "name": "vestingPeriod",
          "type": "uint256"
        },
        {
          "internalType": "uint256",
          "name": "lastClaimAt",
          "type": "uint256"
        },
        {
          "internalType": "uint256",
          "name": "rarityMultiplier",
          "type": "uint256"
        },
        {
          "internalType": "bool",
          "name": "isActive",
          "type": "bool"
        }
      ],
      "stateMutability": "view",
      "type": "function"
    },
    {
      "inputs": [
        {
          "internalType": "address",
          "name": "operator",
          "type": "address"
        },
        {
          "internalType": "address",
          "name": "from",
          "type": "address"
        },
        {
          "internalType": "uint256",
          "name": "tokenId",
          "type": "uint256"
        },
        {
          "internalType": "bytes",
          "name": "data",
          "type": "bytes"
        }
      ],
      "name": "onERC721Received",
      "outputs": [
        {
          "internalType": "bytes4",
          "name": "",
          "type": "bytes4"
        }
      ],
      "stateMutability": "pure",
      "type": "function"
    },
    {
      "inputs": [],
      "name": "owner",
      "outputs": [
        {
          "internalType": "address",
          "name": "",
          "type": "address"
        }
      ],
      "stateMutability": "view",
      "type": "function"
    },
    {
      "inputs": [],
      "name": "pause",
      "outputs": [],
      "stateMutability": "nonpayable",
      "type": "function"
    },
    {
      "inputs": [],
      "name": "paused",
      "outputs": [
        {
          "internalType": "bool",
          "name": "",
          "type": "bool"
        }
      ],
      "stateMutability": "view",
      "type": "function"
    },
    {
      "inputs": [
        {
          "internalType": "string",
          "name": "",
          "type": "string"
        }
      ],
      "name": "rarityMultipliers",
      "outputs": [
        {
          "internalType": "uint256",
          "name": "",
          "type": "uint256"
        }
      ],
      "stateMutability": "view",
      "type": "function"
    },
    {
      "inputs": [],
      "name": "renounceOwnership",
      "outputs": [],
      "stateMutability": "nonpayable",
      "type": "function"
    },
    {
      "inputs": [],
      "name": "rewardsPool",
      "outputs": [
        {
          "internalType": "uint256",
          "name": "",
          "type": "uint256"
        }
      ],
      "stateMutability": "view",
      "type": "function"
    },
    {
      "inputs": [
        {
          "internalType": "string",
          "name": "rarity",
          "type": "string"
        },
        {
          "internalType": "uint256",
          "name": "multiplier",
          "type": "uint256"
        }
      ],
      "name": "setRarityMultiplier",
      "outputs": [],
      "stateMutability": "nonpayable",
      "type": "function"
    },
    {
      "inputs": [
        {
          "internalType": "uint256",
          "name": "tokenId",
          "type": "uint256"
        },
        {
          "internalType": "uint256",
          "name": "vestingPeriod",
          "type": "uint256"
        },
        {
          "internalType": "string",
          "name": "rarity",
          "type": "string"
        }
      ],
      "name": "stakeNFT",
      "outputs": [],
      "stateMutability": "nonpayable",
      "type": "function"
    },
    {
      "inputs": [
        {
          "internalType": "uint256",
          "name": "amount",
          "type": "uint256"
        },
        {
          "internalType": "uint256",
          "name": "vestingPeriod",
          "type": "uint256"
        }
      ],
      "name": "stakeTokens",
      "outputs": [],
      "stateMutability": "nonpayable",
      "type": "function"
    },
    {
      "inputs": [
        {
          "internalType": "address",
          "name": "",
          "type": "address"
        },
        {
          "internalType": "uint256",
          "name": "",
          "type": "uint256"
        }
      ],
      "name": "tokenStakes",
      "outputs": [
        {
          "internalType": "address",
          "name": "owner",
          "type": "address"
        },
        {
          "internalType": "uint256",
          "name": "amount",
          "type": "uint256"
        },
        {
          "internalType": "uint256",
          "name": "stakedAt",
          "type": "uint256"
        },
        {
          "internalType": "uint256",
          "name": "vestingPeriod",
          "type": "uint256"
        },
        {
          "internalType": "uint256",
          "name": "lastClaimAt",
          "type": "uint256"
        },
        {
          "internalType": "bool",
          "name": "isActive",
          "type": "bool"
        }
      ],
      "stateMutability": "view",
      "type": "function"
    },
    {
      "inputs": [],
      "name": "totalGTKStaked",
      "outputs": [
        {
          "internalType": "uint256",
          "name": "",
          "type": "uint256"
        }
      ],
      "stateMutability": "view",
      "type": "function"
    },
    {
      "inputs": [],
      "name": "totalNFTsStaked",
      "outputs": [
        {
          "internalType": "uint256",
          "name": "",
          "type": "uint256"
        }
      ],
      "stateMutability": "view",
      "type": "function"
    },
    {
      "inputs": [],
      "name": "totalRewardsDistributed",
      "outputs": [
        {
          "internalType": "uint256",
          "name": "",
          "type": "uint256"
        }
      ],
      "stateMutability": "view",
      "type": "function"
    },
    {
      "inputs": [
        {
          "internalType": "address",
          "name": "newOwner",
          "type": "address"
        }
      ],
      "name": "transferOwnership",
      "outputs": [],
      "stateMutability": "nonpayable",
      "type": "function"
    },
    {
      "inputs": [],
      "name": "unpause",
      "outputs": [],
      "stateMutability": "nonpayable",
      "type": "function"
    },
    {
      "inputs": [
        {
          "internalType": "uint256",
          "name": "tokenId",
          "type": "uint256"
        }
      ],
      "name": "unstakeNFT",
      "outputs": [],
      "stateMutability": "nonpayable",
      "type": "function"
    },
    {
      "inputs": [
        {
          "internalType": "uint256",
          "name": "stakeIndex",
          "type": "uint256"
        }
      ],
      "name": "unstakeTokens",
      "outputs": [],
      "stateMutability": "nonpayable",
      "type": "function"
    },
    {
      "inputs": [
        {
          "internalType": "address",
          "name": "",
          "type": "address"
        },
        {
          "internalType": "uint256",
          "name": "",
          "type": "uint256"
        }
      ],
      "name": "userStakedNFTs",
      "outputs": [
        {
          "internalType": "uint256",
          "name": "",
          "type": "uint256"
        }
      ],
      "stateMutability": "view",
      "type": "function"
    },
    {
      "inputs": [
        {
          "internalType": "address",
          "name": "",
          "type": "address"
        }
      ],
      "name": "userTokenStakeCount",
      "outputs": [
        {
          "internalType": "uint256",
          "name": "",
          "type": "uint256"
        }
      ],
      "stateMutability": "view",
      "type": "function"
    }
  ],
  "bytecode": "0x608060405234801561001057600080fd5b50604051614ac7380380614ac78339818101604052810190610032919061043f565b61004e61004361031060201b60201c565b61031860201b60201c565b600180819055506000600260006101000a81548160ff021916908315150217905550600073ffffffffffffffffffffffffffffffffffffffff168373ffffffffffffffffffffffffffffffffffffffff16036100df576040517f08c379a00000000000000000000000000000000000000000000000000000000081526004016100d690610515565b60405180910390fd5b600073ffffffffffffffffffffffffffffffffffffffff168273ffffffffffffffffffffffffffffffffffffffff160361014e576040517f08c379a0000000000000000000000000000000000000000000000000000000008152600401610145906105a7565b60405180910390fd5b600073ffffffffffffffffffffffffffffffffffffffff168173ffffffffffffffffffffffffffffffffffffffff16036101bd576040517f08c379a00000000000000000000000000000000000000000000000000000000081526004016101b490610639565b60405180910390fd5b82600260016101000a81548173ffffffffffffffffffffffffffffffffffffffff021916908373ffffffffffffffffffffffffffffffffffffffff16021790555081600360006101000a81548173ffffffffffffffffffffffffffffffffffffffff021916908373ffffffffffffffffffffffffffffffffffffffff16021790555080600460006101000a81548173ffffffffffffffffffffffffffffffffffffffff021916908373ffffffffffffffffffffffffffffffffffffffff1602179055506064600d604051610290906106b0565b908152602001604051809103902081905550607d600d6040516102b290610711565b9081526020016040518091039020819055506096600d6040516102d490610772565b90815260200160405180910390208190555060c8600d6040516102f6906107d3565b9081526020016040518091039020819055505050506107e8565b600033905090565b60008060009054906101000a900473ffffffffffffffffffffffffffffffffffffffff169050816000806101000a81548173ffffffffffffffffffffffffffffffffffffffff021916908373ffffffffffffffffffffffffffffffffffffffff1602179055508173ffffffffffffffffffffffffffffffffffffffff168173ffffffffffffffffffffffffffffffffffffffff167f8be0079c531659141344cd1fd0a4f28419497f9722a3daafe3b4186f6b6457e060405160405180910390a35050565b600080fd5b600073ffffffffffffffffffffffffffffffffffffffff82169050919050565b600061040c826103e1565b9050919050565b61041c81610401565b811461042757600080fd5b50565b60008151905061043981610413565b92915050565b600080600060608486031215610458576104576103dc565b5b60006104668682870161042a565b93505060206104778682870161042a565b92505060406104888682870161042a565b9150509250925092565b600082825260208201905092915050565b7f5374616b696e67506f6f6c3a204e465420636f6e74726163742063616e6e6f7460008201527f206265207a65726f206164647265737300000000000000000000000000000000602082015250565b60006104ff603083610492565b915061050a826104a3565b604082019050919050565b6000602082019050818103600083015261052e816104f2565b9050919050565b7f5374616b696e67506f6f6c3a2047544b20746f6b656e2063616e6e6f7420626560008201527f207a65726f206164647265737300000000000000000000000000000000000000602082015250565b6000610591602d83610492565b915061059c82610535565b604082019050919050565b600060208201905081810360008301526105c081610584565b9050919050565b7f5374616b696e67506f6f6c3a20434d505820746f6b656e2063616e6e6f74206260008201527f65207a65726f2061646472657373000000000000000000000000000000000000602082015250565b6000610623602e83610492565b915061062e826105c7565b604082019050919050565b6000602082019050818103600083015261065281610616565b9050919050565b600081905092915050565b7f636f6d6d6f6e0000000000000000000000000000000000000000000000000000600082015250565b600061069a600683610659565b91506106a582610664565b600682019050919050565b60006106bb8261068d565b9150819050919050565b7f7261726500000000000000000000000000000000000000000000000000000000600082015250565b60006106fb600483610659565b9150610706826106c5565b600482019050919050565b600061071c826106ee565b9150819050919050565b7f6570696300000000000000000000000000000000000000000000000000000000600082015250565b600061075c600483610659565b915061076782610726565b600482019050919050565b600061077d8261074f565b9150819050919050565b7f6c6567656e646172790000000000000000000000000000000000000000000000600082015250565b60006107bd600983610659565b91506107c882610787565b600982019050919050565b60006107de826107b0565b9150819050919050565b6142d0806107f76000396000f3fe608060405234801561001057600080fd5b506004361061021c5760003560e01c80638456cb5911610125578063c85fcbe8116100ad578063d56d229d1161007c578063d56d229d14610626578063e5a5e67414610644578063e92bb10014610662578063ee1725461461067e578063f2fde38b1461069c5761021c565b8063c85fcbe8146105a0578063cd556d39146105be578063ce123723146105da578063cf2c86d71461060a5761021c565b8063a969a863116100f4578063a969a863146104cd578063aa2d0a0814610502578063bcead21814610532578063bfb3db8714610568578063c1dfa0bb146105845761021c565b80638456cb59146104455780638da5cb5b1461044f5780638f083a6c1461046d57806399f27a1c1461049d5761021c565b80634ca19fd6116101a85780636bf82a94116101775780636bf82a94146103b1578063715018a6146103e157806378745c4a146103eb578063788074ec146104095780637ec459b8146104275761021c565b80634ca19fd6146103295780635c975abb146103475780635f19634b14610365578063608e4dd0146103955761021c565b80632c4eb8b2116101ef5780632c4eb8b2146102ab57806337a851b6146102c75780633b7b6188146102e55780633d92f4e2146103015780633f4ba83a1461031f5761021c565b80630359fea914610221578063059f8b161461023f578063150b7a021461025d5780631f4531f51461028d575b600080fd5b6102296106b8565b6040516102369190612c3f565b60405180910390f35b6102476106be565b6040516102549190612c3f565b60405180910390f35b61027760048036038101906102729190612d5d565b6106ca565b6040516102849190612e20565b60405180910390f35b6102956106df565b6040516102a29190612c3f565b60405180910390f35b6102c560048036038101906102c09190612e3b565b6106e4565b005b6102cf610867565b6040516102dc9190612c3f565b60405180910390f35b6102ff60048036038101906102fa9190612e68565b61086d565b005b610309610d89565b6040516103169190612c3f565b60405180910390f35b610327610d8e565b005b610331610da0565b60405161033e9190612c3f565b60405180910390f35b61034f610da5565b60405161035c9190612ec3565b60405180910390f35b61037f600480360381019061037a9190612e3b565b610dbc565b60405161038c9190612c3f565b60405180910390f35b6103af60048036038101906103aa9190612e3b565b610ecb565b005b6103cb60048036038101906103c69190612ede565b611334565b6040516103d89190612c3f565b60405180910390f35b6103e961143f565b005b6103f3611453565b6040516104009190612f7d565b60405180910390f35b610411611479565b60405161041e9190612c3f565b60405180910390f35b61042f61147f565b60405161043c9190612f7d565b60405180910390f35b61044d6114a5565b005b6104576114b7565b6040516104649190612fa7565b60405180910390f35b61048760048036038101906104829190612fc2565b6114e0565b6040516104949190612c3f565b60405180910390f35b6104b760048036038101906104b29190612fc2565b6114f8565b6040516104c491906130ad565b60405180910390f35b6104e760048036038101906104e29190612ede565b61158f565b6040516104f9969594939291906130cf565b60405180910390f35b61051c60048036038101906105179190612ede565b611605565b6040516105299190612c3f565b60405180910390f35b61054c60048036038101906105479190612e3b565b611636565b60405161055f9796959493929190613130565b60405180910390f35b610582600480360381019061057d9190612e3b565b6116a5565b005b61059e60048036038101906105999190612e3b565b6119bf565b005b6105a8611d9b565b6040516105b59190612c3f565b60405180910390f35b6105d860048036038101906105d391906132e0565b611da2565b005b6105f460048036038101906105ef919061334f565b6122b7565b6040516106019190612c3f565b60405180910390f35b610624600480360381019061061f9190612e3b565b6122e5565b005b61062e61263d565b60405161063b91906133b9565b60405180910390f35b61064c612663565b6040516106599190612c3f565b60405180910390f35b61067c600480360381019061067791906133d4565b61266b565b005b6106866126ec565b6040516106939190612c3f565b60405180910390f35b6106b660048036038101906106b19190612fc2565b6126f2565b005b600c5481565b670de0b6b3a764000081565b600063150b7a0260e01b905095945050505050565b600a81565b6106ec612775565b6000811161072f576040517f08c379a0000000000000000000000000000000000000000000000000000000008152600401610726906134b3565b60405180910390fd5b600460009054906101000a900473ffffffffffffffffffffffffffffffffffffffff1673ffffffffffffffffffffffffffffffffffffffff166323b872dd3330846040518463ffffffff1660e01b815260040161078e939291906134d3565b6020604051808303816000875af11580156107ad573d6000803e3d6000fd5b505050506040513d601f19601f820116820180604052508101906107d19190613536565b610810576040517f08c379a0000000000000000000000000000000000000000000000000000000008152600401610807906135af565b60405180910390fd5b61082581600c546127f390919063ffffffff16565b600c819055507f9a596bf41b37e4441fb5871525002b3f89ca77f856d7b084060bd2bd388da47b814260405161085c9291906135cf565b60405180910390a150565b600a5481565b610875612809565b61087d612858565b600082116108c0576040517f08c379a00000000000000000000000000000000000000000000000000000000081526004016108b7906134b3565b60405180910390fd5b62278d00811015610906576040517f08c379a00000000000000000000000000000000000000000000000000000000081526004016108fd9061366a565b60405180910390fd5b6301e1338081111561094d576040517f08c379a0000000000000000000000000000000000000000000000000000000008152600401610944906136fc565b60405180910390fd5b81600360009054906101000a900473ffffffffffffffffffffffffffffffffffffffff1673ffffffffffffffffffffffffffffffffffffffff166370a08231336040518263ffffffff1660e01b81526004016109a99190612fa7565b602060405180830381865afa1580156109c6573d6000803e3d6000fd5b505050506040513d601f19601f820116820180604052508101906109ea9190613731565b1015610a2b576040517f08c379a0000000000000000000000000000000000000000000000000000000008152600401610a22906137d0565b60405180910390fd5b600360009054906101000a900473ffffffffffffffffffffffffffffffffffffffff1673ffffffffffffffffffffffffffffffffffffffff166323b872dd3330856040518463ffffffff1660e01b8152600401610a8a939291906134d3565b6020604051808303816000875af1158015610aa9573d6000803e3d6000fd5b505050506040513d601f19601f82011682018060405250810190610acd9190613536565b610b0c576040517f08c379a0000000000000000000000000000000000000000000000000000000008152600401610b03906135af565b60405180910390fd5b6000600760003373ffffffffffffffffffffffffffffffffffffffff1673ffffffffffffffffffffffffffffffffffffffff1681526020019081526020016000205490506040518060c001604052803373ffffffffffffffffffffffffffffffffffffffff16815260200184815260200142815260200183815260200142815260200160011515815250600660003373ffffffffffffffffffffffffffffffffffffffff1673ffffffffffffffffffffffffffffffffffffffff168152602001908152602001600020600083815260200190815260200160002060008201518160000160006101000a81548173ffffffffffffffffffffffffffffffffffffffff021916908373ffffffffffffffffffffffffffffffffffffffff1602179055506020820151816001015560408201518160020155606082015181600301556080820151816004015560a08201518160050160006101000a81548160ff021916908315150217905550905050610ccb6001600760003373ffffffffffffffffffffffffffffffffffffffff1673ffffffffffffffffffffffffffffffffffffffff168152602001908152602001600020546127f390919063ffffffff16565b600760003373ffffffffffffffffffffffffffffffffffffffff1673ffffffffffffffffffffffffffffffffffffffff16815260200190815260200160002081905550610d2383600a546127f390919063ffffffff16565b600a81905550803373ffffffffffffffffffffffffffffffffffffffff167fc789199ed45a14d576da5fd2586729f595cd3cb27de69f46e775fc0a2b2d1544858542604051610d74939291906137f0565b60405180910390a350610d856128a2565b5050565b602381565b610d96612775565b610d9e6128ab565b565b600f81565b6000600260009054906101000a900460ff16905090565b6000806005600084815260200190815260200160002090508060060160009054906101000a900460ff16610df4576000915050610ec6565b6000610e0d82600401544261290e90919063ffffffff16565b90506000610e1e8360030154612924565b90506000670de0b6b3a76400006064610e379190613856565b90506000610e616064610e53858561297e90919063ffffffff16565b61299490919063ffffffff16565b90506000610e8e6301e13380610e80878561297e90919063ffffffff16565b61299490919063ffffffff16565b9050610eba6064610eac88600501548461297e90919063ffffffff16565b61299490919063ffffffff16565b90508096505050505050505b919050565b610ed3612809565b610edb612858565b6000600660003373ffffffffffffffffffffffffffffffffffffffff1673ffffffffffffffffffffffffffffffffffffffff168152602001908152602001600020600083815260200190815260200160002090508060050160009054906101000a900460ff16610f80576040517f08c379a0000000000000000000000000000000000000000000000000000000008152600401610f77906138e4565b60405180910390fd5b3373ffffffffffffffffffffffffffffffffffffffff168160000160009054906101000a900473ffffffffffffffffffffffffffffffffffffffff1673ffffffffffffffffffffffffffffffffffffffff1614611012576040517f08c379a000000000000000000000000000000000000000000000000000000000815260040161100990613950565b60405180910390fd5b600061101e3384611334565b9050600061103d836003015484600201546127f390919063ffffffff16565b4210156110835761106b606461105d600a8561297e90919063ffffffff16565b61299490919063ffffffff16565b9050611080818361290e90919063ffffffff16565b91505b60008360010154905060008460050160006101000a81548160ff0219169083151502179055506110be81600a5461290e90919063ffffffff16565b600a81905550600360009054906101000a900473ffffffffffffffffffffffffffffffffffffffff1673ffffffffffffffffffffffffffffffffffffffff1663a9059cbb33836040518363ffffffff1660e01b8152600401611121929190613970565b6020604051808303816000875af1158015611140573d6000803e3d6000fd5b505050506040513d601f19601f820116820180604052508101906111649190613536565b6111a3576040517f08c379a000000000000000000000000000000000000000000000000000000000815260040161119a90613a0b565b60405180910390fd5b6000831180156111b5575082600c5410155b156112d0576111cf83600c5461290e90919063ffffffff16565b600c819055506111ea83600b546127f390919063ffffffff16565b600b81905550600460009054906101000a900473ffffffffffffffffffffffffffffffffffffffff1673ffffffffffffffffffffffffffffffffffffffff1663a9059cbb33856040518363ffffffff1660e01b815260040161124d929190613970565b6020604051808303816000875af115801561126c573d6000803e3d6000fd5b505050506040513d601f19601f820116820180604052508101906112909190613536565b6112cf576040517f08c379a00000000000000000000000000000000000000000000000000000000081526004016112c690613a9d565b60405180910390fd5b5b843373ffffffffffffffffffffffffffffffffffffffff167f524850cc44b791bb7b2a76872f0f41c6a4afd3bc46665b32bcd64b558a4d5c908386864260405161131d9493929190613abd565b60405180910390a3505050506113316128a2565b50565b600080600660008573ffffffffffffffffffffffffffffffffffffffff1673ffffffffffffffffffffffffffffffffffffffff168152602001908152602001600020600084815260200190815260200160002090508060050160009054906101000a900460ff166113a9576000915050611439565b60006113c282600401544261290e90919063ffffffff16565b905060006113d38360030154612924565b9050600061140160646113f384876001015461297e90919063ffffffff16565b61299490919063ffffffff16565b9050600061142e6301e13380611420868561297e90919063ffffffff16565b61299490919063ffffffff16565b905080955050505050505b92915050565b611447612775565b61145160006129aa565b565b600460009054906101000a900473ffffffffffffffffffffffffffffffffffffffff1681565b60095481565b600360009054906101000a900473ffffffffffffffffffffffffffffffffffffffff1681565b6114ad612775565b6114b5612a6e565b565b60008060009054906101000a900473ffffffffffffffffffffffffffffffffffffffff16905090565b60076020528060005260406000206000915090505481565b6060600860008373ffffffffffffffffffffffffffffffffffffffff1673ffffffffffffffffffffffffffffffffffffffff16815260200190815260200160002080548060200260200160405190810160405280929190818152602001828054801561158357602002820191906000526020600020905b81548152602001906001019080831161156f575b50505050509050919050565b6006602052816000526040600020602052806000526040600020600091509150508060000160009054906101000a900473ffffffffffffffffffffffffffffffffffffffff16908060010154908060020154908060030154908060040154908060050160009054906101000a900460ff16905086565b6008602052816000526040600020818154811061162157600080fd5b90600052602060002001600091509150505481565b60056020528060005260406000206000915090508060000160009054906101000a900473ffffffffffffffffffffffffffffffffffffffff16908060010154908060020154908060030154908060040154908060050154908060060160009054906101000a900460ff16905087565b6116ad612809565b6116b5612858565b60006005600083815260200190815260200160002090508060060160009054906101000a900460ff1661171d576040517f08c379a000000000000000000000000000000000000000000000000000000000815260040161171490613b4e565b60405180910390fd5b3373ffffffffffffffffffffffffffffffffffffffff168160000160009054906101000a900473ffffffffffffffffffffffffffffffffffffffff1673ffffffffffffffffffffffffffffffffffffffff16146117af576040517f08c379a00000000000000000000000000000000000000000000000000000000081526004016117a690613950565b60405180910390fd5b60006117ba83610dbc565b9050600081116117ff576040517f08c379a00000000000000000000000000000000000000000000000000000000081526004016117f690613be0565b60405180910390fd5b80600c541015611844576040517f08c379a000000000000000000000000000000000000000000000000000000000815260040161183b90613c72565b60405180910390fd5b42826004018190555061186281600c5461290e90919063ffffffff16565b600c8190555061187d81600b546127f390919063ffffffff16565b600b81905550600460009054906101000a900473ffffffffffffffffffffffffffffffffffffffff1673ffffffffffffffffffffffffffffffffffffffff1663a9059cbb33836040518363ffffffff1660e01b81526004016118e0929190613970565b6020604051808303816000875af11580156118ff573d6000803e3d6000fd5b505050506040513d601f19601f820116820180604052508101906119239190613536565b611962576040517f08c379a000000000000000000000000000000000000000000000000000000000815260040161195990613a9d565b60405180910390fd5b3373ffffffffffffffffffffffffffffffffffffffff167fdacbdde355ba930696a362ea6738feb9f8bd52dfb3d81947558fd3217e23e32582426040516119aa9291906135cf565b60405180910390a250506119bc6128a2565b50565b6119c7612809565b6119cf612858565b60006005600083815260200190815260200160002090508060060160009054906101000a900460ff16611a37576040517f08c379a0000000000000000000000000000000000000000000000000000000008152600401611a2e90613b4e565b60405180910390fd5b3373ffffffffffffffffffffffffffffffffffffffff168160000160009054906101000a900473ffffffffffffffffffffffffffffffffffffffff1673ffffffffffffffffffffffffffffffffffffffff1614611ac9576040517f08c379a0000000000000000000000000000000000000000000000000000000008152600401611ac090613950565b60405180910390fd5b6000611ad483610dbc565b90506000611af3836003015484600201546127f390919063ffffffff16565b421015611b3957611b216064611b13600a8561297e90919063ffffffff16565b61299490919063ffffffff16565b9050611b36818361290e90919063ffffffff16565b91505b60008360060160006101000a81548160ff021916908315150217905550611b603385612ad1565b611b76600160095461290e90919063ffffffff16565b600981905550600260019054906101000a900473ffffffffffffffffffffffffffffffffffffffff1673ffffffffffffffffffffffffffffffffffffffff166342842e0e3033876040518463ffffffff1660e01b8152600401611bdb939291906134d3565b600060405180830381600087803b158015611bf557600080fd5b505af1158015611c09573d6000803e3d6000fd5b50505050600082118015611c1f575081600c5410155b15611d3a57611c3982600c5461290e90919063ffffffff16565b600c81905550611c5482600b546127f390919063ffffffff16565b600b81905550600460009054906101000a900473ffffffffffffffffffffffffffffffffffffffff1673ffffffffffffffffffffffffffffffffffffffff1663a9059cbb33846040518363ffffffff1660e01b8152600401611cb7929190613970565b6020604051808303816000875af1158015611cd6573d6000803e3d6000fd5b505050506040513d601f19601f82011682018060405250810190611cfa9190613536565b611d39576040517f08c379a0000000000000000000000000000000000000000000000000000000008152600401611d3090613a9d565b60405180910390fd5b5b833373ffffffffffffffffffffffffffffffffffffffff167f23c3fe5a0832281f0a6470b46e0d850a96ff63f753368c1e4902cfbc29eb74e2848442604051611d85939291906137f0565b60405180910390a3505050611d986128a2565b50565b62278d0081565b611daa612809565b611db2612858565b62278d00821015611df8576040517f08c379a0000000000000000000000000000000000000000000000000000000008152600401611def9061366a565b60405180910390fd5b6301e13380821115611e3f576040517f08c379a0000000000000000000000000000000000000000000000000000000008152600401611e36906136fc565b60405180910390fd5b3373ffffffffffffffffffffffffffffffffffffffff16600260019054906101000a900473ffffffffffffffffffffffffffffffffffffffff1673ffffffffffffffffffffffffffffffffffffffff16636352211e856040518263ffffffff1660e01b8152600401611eb19190612c3f565b602060405180830381865afa158015611ece573d6000803e3d6000fd5b505050506040513d601f19601f82011682018060405250810190611ef29190613ca7565b73ffffffffffffffffffffffffffffffffffffffff1614611f48576040517f08c379a0000000000000000000000000000000000000000000000000000000008152600401611f3f90613d20565b60405180910390fd5b6005600084815260200190815260200160002060060160009054906101000a900460ff1615611fac576040517f08c379a0000000000000000000000000000000000000000000000000000000008152600401611fa390613d8c565b60405180910390fd5b6000600d82604051611fbe9190613e1d565b9081526020016040518091039020541161200d576040517f08c379a000000000000000000000000000000000000000000000000000000000815260040161200490613e80565b60405180910390fd5b600260019054906101000a900473ffffffffffffffffffffffffffffffffffffffff1673ffffffffffffffffffffffffffffffffffffffff166342842e0e3330866040518463ffffffff1660e01b815260040161206c939291906134d3565b600060405180830381600087803b15801561208657600080fd5b505af115801561209a573d6000803e3d6000fd5b505050506040518060e001604052803373ffffffffffffffffffffffffffffffffffffffff168152602001848152602001428152602001838152602001428152602001600d836040516120ed9190613e1d565b9081526020016040518091039020548152602001600115158152506005600085815260200190815260200160002060008201518160000160006101000a81548173ffffffffffffffffffffffffffffffffffffffff021916908373ffffffffffffffffffffffffffffffffffffffff1602179055506020820151816001015560408201518160020155606082015181600301556080820151816004015560a0820151816005015560c08201518160060160006101000a81548160ff021916908315150217905550905050600860003373ffffffffffffffffffffffffffffffffffffffff1673ffffffffffffffffffffffffffffffffffffffff16815260200190815260200160002083908060018154018082558091505060019003906000526020600020016000909190919091505561223360016009546127f390919063ffffffff16565b600981905550823373ffffffffffffffffffffffffffffffffffffffff167fb5cfe9040f9e9c122ff97a9ceab6fb09dbca8cb014b9dad80c63b041a6401a7c84600d856040516122839190613e1d565b908152602001604051809103902054426040516122a2939291906137f0565b60405180910390a36122b26128a2565b505050565b600d818051602081018201805184825260208301602085012081835280955050505050506000915090505481565b6122ed612809565b6122f5612858565b6000600660003373ffffffffffffffffffffffffffffffffffffffff1673ffffffffffffffffffffffffffffffffffffffff168152602001908152602001600020600083815260200190815260200160002090508060050160009054906101000a900460ff1661239a576040517f08c379a0000000000000000000000000000000000000000000000000000000008152600401612391906138e4565b60405180910390fd5b3373ffffffffffffffffffffffffffffffffffffffff168160000160009054906101000a900473ffffffffffffffffffffffffffffffffffffffff1673ffffffffffffffffffffffffffffffffffffffff161461242c576040517f08c379a000000000000000000000000000000000000000000000000000000000815260040161242390613950565b60405180910390fd5b60006124383384611334565b90506000811161247d576040517f08c379a000000000000000000000000000000000000000000000000000000000815260040161247490613be0565b60405180910390fd5b80600c5410156124c2576040517f08c379a00000000000000000000000000000000000000000000000000000000081526004016124b990613c72565b60405180910390fd5b4282600401819055506124e081600c5461290e90919063ffffffff16565b600c819055506124fb81600b546127f390919063ffffffff16565b600b81905550600460009054906101000a900473ffffffffffffffffffffffffffffffffffffffff1673ffffffffffffffffffffffffffffffffffffffff1663a9059cbb33836040518363ffffffff1660e01b815260040161255e929190613970565b6020604051808303816000875af115801561257d573d6000803e3d6000fd5b505050506040513d601f19601f820116820180604052508101906125a19190613536565b6125e0576040517f08c379a00000000000000000000000000000000000000000000000000000000081526004016125d790613a9d565b60405180910390fd5b3373ffffffffffffffffffffffffffffffffffffffff167fdacbdde355ba930696a362ea6738feb9f8bd52dfb3d81947558fd3217e23e32582426040516126289291906135cf565b60405180910390a2505061263a6128a2565b50565b600260019054906101000a900473ffffffffffffffffffffffffffffffffffffffff1681565b6301e1338081565b612673612775565b60648110158015612686575061012c8111155b6126c5576040517f08c379a00000000000000000000000000000000000000000000000000000000081526004016126bc90613f12565b60405180910390fd5b80600d836040516126d69190613e1d565b9081526020016040518091039020819055505050565b600b5481565b6126fa612775565b600073ffffffffffffffffffffffffffffffffffffffff168173ffffffffffffffffffffffffffffffffffffffff1603612769576040517f08c379a000000000000000000000000000000000000000000000000000000000815260040161276090613fa4565b60405180910390fd5b612772816129aa565b50565b61277d612bd5565b73ffffffffffffffffffffffffffffffffffffffff1661279b6114b7565b73ffffffffffffffffffffffffffffffffffffffff16146127f1576040517f08c379a00000000000000000000000000000000000000000000000000000000081526004016127e890614010565b60405180910390fd5b565b600081836128019190614030565b905092915050565b60026001540361284e576040517f08c379a0000000000000000000000000000000000000000000000000000000008152600401612845906140b0565b60405180910390fd5b6002600181905550565b612860610da5565b156128a0576040517f08c379a00000000000000000000000000000000000000000000000000000000081526004016128979061411c565b60405180910390fd5b565b60018081905550565b6128b3612bdd565b6000600260006101000a81548160ff0219169083151502179055507f5db9ee0a495bf2e6ff9c91a7834c1ba4fdd244a5e8aa4e537bd38aeae4b073aa6128f7612bd5565b6040516129049190612fa7565b60405180910390a1565b6000818361291c919061413c565b905092915050565b60006301e13380821061293a5760239050612979565b630163f500821061294e57601e9050612979565b62ed4e0082106129615760199050612979565b6276a70082106129745760149050612979565b600f90505b919050565b6000818361298c9190613856565b905092915050565b600081836129a2919061419f565b905092915050565b60008060009054906101000a900473ffffffffffffffffffffffffffffffffffffffff169050816000806101000a81548173ffffffffffffffffffffffffffffffffffffffff021916908373ffffffffffffffffffffffffffffffffffffffff1602179055508173ffffffffffffffffffffffffffffffffffffffff168173ffffffffffffffffffffffffffffffffffffffff167f8be0079c531659141344cd1fd0a4f28419497f9722a3daafe3b4186f6b6457e060405160405180910390a35050565b612a76612858565b6001600260006101000a81548160ff0219169083151502179055507f62e78cea01bee320cd4e420270b5ea74000d11b0c9f74754ebdbfc544b05a258612aba612bd5565b604051612ac79190612fa7565b60405180910390a1565b6000600860008473ffffffffffffffffffffffffffffffffffffffff1673ffffffffffffffffffffffffffffffffffffffff168152602001908152602001600020905060005b8180549050811015612bcf5782828281548110612b3757612b366141d0565b5b906000526020600020015403612bc2578160018380549050612b59919061413c565b81548110612b6a57612b696141d0565b5b9060005260206000200154828281548110612b8857612b876141d0565b5b906000526020600020018190555081805480612ba757612ba66141ff565b5b60019003818190600052602060002001600090559055612bcf565b8080600101915050612b17565b50505050565b600033905090565b612be5610da5565b612c24576040517f08c379a0000000000000000000000000000000000000000000000000000000008152600401612c1b9061427a565b60405180910390fd5b565b6000819050919050565b612c3981612c26565b82525050565b6000602082019050612c546000830184612c30565b92915050565b6000604051905090565b600080fd5b600080fd5b600073ffffffffffffffffffffffffffffffffffffffff82169050919050565b6000612c9982612c6e565b9050919050565b612ca981612c8e565b8114612cb457600080fd5b50565b600081359050612cc681612ca0565b92915050565b612cd581612c26565b8114612ce057600080fd5b50565b600081359050612cf281612ccc565b92915050565b600080fd5b600080fd5b600080fd5b60008083601f840112612d1d57612d1c612cf8565b5b8235905067ffffffffffffffff811115612d3a57612d39612cfd565b5b602083019150836001820283011115612d5657612d55612d02565b5b9250929050565b600080600080600060808688031215612d7957612d78612c64565b5b6000612d8788828901612cb7565b9550506020612d9888828901612cb7565b9450506040612da988828901612ce3565b935050606086013567ffffffffffffffff811115612dca57612dc9612c69565b5b612dd688828901612d07565b92509250509295509295909350565b60007fffffffff0000000000000000000000000000000000000000000000000000000082169050919050565b612e1a81612de5565b82525050565b6000602082019050612e356000830184612e11565b92915050565b600060208284031215612e5157612e50612c64565b5b6000612e5f84828501612ce3565b91505092915050565b60008060408385031215612e7f57612e7e612c64565b5b6000612e8d85828601612ce3565b9250506020612e9e85828601612ce3565b9150509250929050565b60008115159050919050565b612ebd81612ea8565b82525050565b6000602082019050612ed86000830184612eb4565b92915050565b60008060408385031215612ef557612ef4612c64565b5b6000612f0385828601612cb7565b9250506020612f1485828601612ce3565b9150509250929050565b6000819050919050565b6000612f43612f3e612f3984612c6e565b612f1e565b612c6e565b9050919050565b6000612f5582612f28565b9050919050565b6000612f6782612f4a565b9050919050565b612f7781612f5c565b82525050565b6000602082019050612f926000830184612f6e565b92915050565b612fa181612c8e565b82525050565b6000602082019050612fbc6000830184612f98565b92915050565b600060208284031215612fd857612fd7612c64565b5b6000612fe684828501612cb7565b91505092915050565b600081519050919050565b600082825260208201905092915050565b6000819050602082019050919050565b61302481612c26565b82525050565b6000613036838361301b565b60208301905092915050565b6000602082019050919050565b600061305a82612fef565b6130648185612ffa565b935061306f8361300b565b8060005b838110156130a0578151613087888261302a565b975061309283613042565b925050600181019050613073565b5085935050505092915050565b600060208201905081810360008301526130c7818461304f565b905092915050565b600060c0820190506130e46000830189612f98565b6130f16020830188612c30565b6130fe6040830187612c30565b61310b6060830186612c30565b6131186080830185612c30565b61312560a0830184612eb4565b979650505050505050565b600060e082019050613145600083018a612f98565b6131526020830189612c30565b61315f6040830188612c30565b61316c6060830187612c30565b6131796080830186612c30565b61318660a0830185612c30565b61319360c0830184612eb4565b98975050505050505050565b600080fd5b6000601f19601f8301169050919050565b7f4e487b7100000000000000000000000000000000000000000000000000000000600052604160045260246000fd5b6131ed826131a4565b810181811067ffffffffffffffff8211171561320c5761320b6131b5565b5b80604052505050565b600061321f612c5a565b905061322b82826131e4565b919050565b600067ffffffffffffffff82111561324b5761324a6131b5565b5b613254826131a4565b9050602081019050919050565b82818337600083830152505050565b600061328361327e84613230565b613215565b90508281526020810184848401111561329f5761329e61319f565b5b6132aa848285613261565b509392505050565b600082601f8301126132c7576132c6612cf8565b5b81356132d7848260208601613270565b91505092915050565b6000806000606084860312156132f9576132f8612c64565b5b600061330786828701612ce3565b935050602061331886828701612ce3565b925050604084013567ffffffffffffffff81111561333957613338612c69565b5b613345868287016132b2565b9150509250925092565b60006020828403121561336557613364612c64565b5b600082013567ffffffffffffffff81111561338357613382612c69565b5b61338f848285016132b2565b91505092915050565b60006133a382612f4a565b9050919050565b6133b381613398565b82525050565b60006020820190506133ce60008301846133aa565b92915050565b600080604083850312156133eb576133ea612c64565b5b600083013567ffffffffffffffff81111561340957613408612c69565b5b613415858286016132b2565b925050602061342685828601612ce3565b9150509250929050565b600082825260208201905092915050565b7f5374616b696e67506f6f6c3a20416d6f756e74206d757374206265206772656160008201527f746572207468616e203000000000000000000000000000000000000000000000602082015250565b600061349d602a83613430565b91506134a882613441565b604082019050919050565b600060208201905081810360008301526134cc81613490565b9050919050565b60006060820190506134e86000830186612f98565b6134f56020830185612f98565b6135026040830184612c30565b949350505050565b61351381612ea8565b811461351e57600080fd5b50565b6000815190506135308161350a565b92915050565b60006020828403121561354c5761354b612c64565b5b600061355a84828501613521565b91505092915050565b7f5374616b696e67506f6f6c3a205472616e73666572206661696c656400000000600082015250565b6000613599601c83613430565b91506135a482613563565b602082019050919050565b600060208201905081810360008301526135c88161358c565b9050919050565b60006040820190506135e46000830185612c30565b6135f16020830184612c30565b9392505050565b7f5374616b696e67506f6f6c3a2056657374696e6720706572696f6420746f6f2060008201527f73686f7274000000000000000000000000000000000000000000000000000000602082015250565b6000613654602583613430565b915061365f826135f8565b604082019050919050565b6000602082019050818103600083015261368381613647565b9050919050565b7f5374616b696e67506f6f6c3a2056657374696e6720706572696f6420746f6f2060008201527f6c6f6e6700000000000000000000000000000000000000000000000000000000602082015250565b60006136e6602483613430565b91506136f18261368a565b604082019050919050565b60006020820190508181036000830152613715816136d9565b9050919050565b60008151905061372b81612ccc565b92915050565b60006020828403121561374757613746612c64565b5b60006137558482850161371c565b91505092915050565b7f5374616b696e67506f6f6c3a20496e73756666696369656e742047544b20626160008201527f6c616e6365000000000000000000000000000000000000000000000000000000602082015250565b60006137ba602583613430565b91506137c58261375e565b604082019050919050565b600060208201905081810360008301526137e9816137ad565b9050919050565b60006060820190506138056000830186612c30565b6138126020830185612c30565b61381f6040830184612c30565b949350505050565b7f4e487b7100000000000000000000000000000000000000000000000000000000600052601160045260246000fd5b600061386182612c26565b915061386c83612c26565b925082820261387a81612c26565b9150828204841483151761389157613890613827565b5b5092915050565b7f5374616b696e67506f6f6c3a20546f6b656e73206e6f74207374616b65640000600082015250565b60006138ce601e83613430565b91506138d982613898565b602082019050919050565b600060208201905081810360008301526138fd816138c1565b9050919050565b7f5374616b696e67506f6f6c3a204e6f74206f776e6572206f66207374616b6500600082015250565b600061393a601f83613430565b915061394582613904565b602082019050919050565b600060208201905081810360008301526139698161392d565b9050919050565b60006040820190506139856000830185612f98565b6139926020830184612c30565b9392505050565b7f5374616b696e67506f6f6c3a20546f6b656e207472616e73666572206661696c60008201527f6564000000000000000000000000000000000000000000000000000000000000602082015250565b60006139f5602283613430565b9150613a0082613999565b604082019050919050565b60006020820190508181036000830152613a24816139e8565b9050919050565b7f5374616b696e67506f6f6c3a20526577617264207472616e736665722066616960008201527f6c65640000000000000000000000000000000000000000000000000000000000602082015250565b6000613a87602383613430565b9150613a9282613a2b565b604082019050919050565b60006020820190508181036000830152613ab681613a7a565b9050919050565b6000608082019050613ad26000830187612c30565b613adf6020830186612c30565b613aec6040830185612c30565b613af96060830184612c30565b95945050505050565b7f5374616b696e67506f6f6c3a204e4654206e6f74207374616b65640000000000600082015250565b6000613b38601b83613430565b9150613b4382613b02565b602082019050919050565b60006020820190508181036000830152613b6781613b2b565b9050919050565b7f5374616b696e67506f6f6c3a204e6f207265776172647320617661696c61626c60008201527f6500000000000000000000000000000000000000000000000000000000000000602082015250565b6000613bca602183613430565b9150613bd582613b6e565b604082019050919050565b60006020820190508181036000830152613bf981613bbd565b9050919050565b7f5374616b696e67506f6f6c3a20496e73756666696369656e742072657761726460008201527f7320706f6f6c0000000000000000000000000000000000000000000000000000602082015250565b6000613c5c602683613430565b9150613c6782613c00565b604082019050919050565b60006020820190508181036000830152613c8b81613c4f565b9050919050565b600081519050613ca181612ca0565b92915050565b600060208284031215613cbd57613cbc612c64565b5b6000613ccb84828501613c92565b91505092915050565b7f5374616b696e67506f6f6c3a204e6f74206f776e6572206f66204e4654000000600082015250565b6000613d0a601d83613430565b9150613d1582613cd4565b602082019050919050565b60006020820190508181036000830152613d3981613cfd565b9050919050565b7f5374616b696e67506f6f6c3a204e465420616c7265616479207374616b656400600082015250565b6000613d76601f83613430565b9150613d8182613d40565b602082019050919050565b60006020820190508181036000830152613da581613d69565b9050919050565b600081519050919050565b600081905092915050565b60005b83811015613de0578082015181840152602081019050613dc5565b60008484015250505050565b6000613df782613dac565b613e018185613db7565b9350613e11818560208601613dc2565b80840191505092915050565b6000613e298284613dec565b915081905092915050565b7f5374616b696e67506f6f6c3a20496e76616c6964207261726974790000000000600082015250565b6000613e6a601b83613430565b9150613e7582613e34565b602082019050919050565b60006020820190508181036000830152613e9981613e5d565b9050919050565b7f5374616b696e67506f6f6c3a20496e76616c6964206d756c7469706c6965722060008201527f72616e6765000000000000000000000000000000000000000000000000000000602082015250565b6000613efc602583613430565b9150613f0782613ea0565b604082019050919050565b60006020820190508181036000830152613f2b81613eef565b9050919050565b7f4f776e61626c653a206e6577206f776e657220697320746865207a65726f206160008201527f6464726573730000000000000000000000000000000000000000000000000000602082015250565b6000613f8e602683613430565b9150613f9982613f32565b604082019050919050565b60006020820190508181036000830152613fbd81613f81565b9050919050565b7f4f776e61626c653a2063616c6c6572206973206e6f7420746865206f776e6572600082015250565b6000613ffa602083613430565b915061400582613fc4565b602082019050919050565b6000602082019050818103600083015261402981613fed565b9050919050565b600061403b82612c26565b915061404683612c26565b925082820190508082111561405e5761405d613827565b5b92915050565b7f5265656e7472616e637947756172643a207265656e7472616e742063616c6c00600082015250565b600061409a601f83613430565b91506140a582614064565b602082019050919050565b600060208201905081810360008301526140c98161408d565b9050919050565b7f5061757361626c653a2070617573656400000000000000000000000000000000600082015250565b6000614106601083613430565b9150614111826140d0565b602082019050919050565b60006020820190508181036000830152614135816140f9565b9050919050565b600061414782612c26565b915061415283612c26565b925082820390508181111561416a57614169613827565b5b92915050565b7f4e487b7100000000000000000000000000000000000000000000000000000000600052601260045260246000fd5b60006141aa82612c26565b91506141b583612c26565b9250826141c5576141c4614170565b5b828204905092915050565b7f4e487b7100000000000000000000000000000000000000000000000000000000600052603260045260246000fd5b7f4e487b7100000000000000000000000000000000000000000000000000000000600052603160045260246000fd5b7f5061757361626c653a206e6f7420706175736564000000000000000000000000600082015250565b6000614264601483613430565b915061426f8261422e565b602082019050919050565b6000602082019050818103600083015261429381614257565b905091905056fea264697066735822122053aedec84fb6537d7c9b57edabf68a1d04ffae04f721019b6be8be4c9f4bc2a964736f6c63430008190033",
  "linkReferences": {},
  "deployedLinkReferences": {}
}